:100000000C94F5090C943C0A0C943C0A0C94A92617
:100010000C943C0A0C943C0A0C943C0A0C943C0A48
:100020000C943C0A0C943C0A0C94442E0C94182F0B
:100030000C9464290C943C0A0C943C0A0C943C0AE1
:100040000C943C0A0C943C0A0C943C0A0C943C0A18
:100050000C943C0A0C94D7290C943C0A0C943C0A4E
:100060000C943C0A0C943C0A0C943C0A0C943C0AF8
:100070000C943C0A0C943C0A0C943C0A0C943C0AE8
:100080000C943C0A0C943C0A0C943C0A0C943C0AD8
:100090000C943C0A0C943C0A0C943C0A0C943C0AC8
:1000A0000C943C0A0C943C0A0C943C0A01048E9675
:1000B0006E773EFE7E5F1DB8F2664EFF5D19B0C2E0
:1000C0000469542AD62EBFDD19B0C3E529B1E02357
:1000D000A5A9B1C10082674C1A978D795120C70636
:1000E0008E7C7C7A764FFD5930E2460E9EBEDF1D37
:1000F0009991A0A5A1A9D022C6EF5C1B958990A2D9
:10010000A7CCFB5528B3E44AF76C3BF46A562EDEC5
:100110001F9DB8D3058892A6CE1EBEDF1D99B0E202
:1001200046EF5C07115D980B9D9497EE4E45336B3F
:1001300044C729562730C6A7D5F256DFB43862CB5C
:10014000A0B6E30F84062405656F7689B57741274D
:1001500082666582CCD5E620D52717C5F803237CB7
:100160005F64A51DC1D636CB4CD4DB66D78BB19965
:100170007E6F4C364006D6EBD7A2E4F495515A5424
:1001800096D55344D78CE0B94068D218E9DD9A235C
:100190009248EE7F43AFEA7738848C0A72AF69F8F1
:1001A000DDF12483A3F84ABFF59413DBBBD8B4B3C5
:1001B000A0FB4550603059123171A2D313E7FAE722
:1001C000CE0F63150B6B94BB378326059DFB4692C0
:1001D000FC0A15D10D7392D68C1B8CB8558ACEBDF6
:1001E000FE8EFCED0912839182513123FBB40C7613
:1001F000AD7CD9B44BB26714099C7F0C18BA3BD6BE
:100200008E142AE41B529F2B7DE1FB6A3302FAAC69
:100210005AF23E887EAED1F378E805D1E3DC21F6D0
:10022000E19ABD170ED9469B8803EAF666BE0E1BFF
:100230005049964097F1F1E480A66EE87734BF29E3
:100240004044C2FF4E98D39CA3322B76510409E759
:10025000A9D1A632B12353E247ABD6F5695C3E5F24
:10026000FAAE4520E5D244FF39326DFD27575CFDDB
:10027000F0DEC1B599E5F51C770175C56D5892F2B0
:10028000B247000126967A30FFB7F0EF77C18A5D5A
:10029000DCC0D129301E77387A94F1B87A7EEFA489
:1002A000D1AC314AF25D643DB2E2F00899FC70EEE7
:1002B00024A77EEE1E20697D44BF8742DF883B0C69
:1002C000DA42C904F94550FC838F116A72BC9995D2
:1002D000F0AC3DA73BCD1CE2887937115F39899599
:1002E0000A16847AF68AA428E4ED83803BB123A51C
:1002F0000310F466EABB0C0FC5EC6C69C5D324ABE4
:10030000D42AB799887608A0A8957CD8386DCD599D
:1003100002514BF1B52B50E3B6BDD072CF9EFD6EAE
:10032000BB44C8248A77188A1306EF977DFA81F0B8
:1003300031E6FA77ED3106315B548A9F3068DBE2B3
:1003400040F84E73FAAB748B105813DCD2E678D1B8
:10035000322E8A9F2C58064827C5A95E81478946B8
:1003600021910370A43E889CDA330ACEBC8B8ECFD9
:100370009FD3718043CF6BA95183763082C56A8544
:100380003911501A82DC1E1CD57DA9719933471989
:1003900097B35AB1DFEDA4F2E62684A2289A9EDF35
:1003A000A66AF4D6FC2E5B9D1A2A2768FBC183211E
:1003B0004B90E036DD5B314255A013F7D089537185
:1003C00099570929C5F321F8372F40F3D4AF160800
:1003D0003602FC77C58B049056B9C9679A99E80034
:1003E000D386FF972D08E9B7B391BCDF45C6ED0F63
:1003F0008C4C1EE65B6E3830E4AAE395DEB9E49AD5
:10040000F5B2559A879BF66AB2F2779A31F47A314F
:10041000D11D04C07C32A29E9AF562F8278DBF518F
:10042000FFD3DF64373F2A6F763A7D77069E777F6A
:100430005EEB3251F916669A09F3B008A47096463D
:1004400030FFDA4FE91BED8DF8741F3192B373174B
:1004500036DB9130D688556B3477877AE7EE06C65F
:100460001C8C190C4846235E9C075CBFB47ED64F9B
:10047000749CE2C5508BC58B159060625729D013D0
:1004800043A18088910044C74D1986CC2F2A755A04
:10049000FCEB972A70E378D891B04F9907A395EABF
:1004A0002421D5DE512093270A3073A8FF8A97E9CB
:1004B000A76A8E0DE8F0DFECEAB46C1D392A622DD4
:1004C0003D5A8B65F890052E7E912C78EF8E7AC17F
:1004D0002FAC78EEAF2845064C26AF3BA2DBA393AA
:1004E00006B53CA5D8EE8FAF25CC3F856848A962FC
:1004F000CC978F7F2AEAE0150AAD6207BD45F84127
:10050000D836CB4CDB6EE63AE7DA15E9291E121035
:10051000A0142C0E3DF4BF394192750B257BA3CE60
:10052000399C1564C8FA3DEF7327FE262ECEDA6E8D
:10053000FD718EDDFE76EEDC125C02C53A4E4E4F4A
:10054000BFCA4015C76E8D41F110E04F7E977F1CEA
:10055000AE478E6BB12531B073C71B9779F980D345
:1005600066223007741EE4D08021D6EE6B6C4FBF3C
:10057000F5B7D909872FA914BE27D9725001D41312
:1005800073A6A751027525E1B345347DA88EEBF320
:100590001649CB4F8CA1B9368539755D0800AEEB95
:1005A000F6EAD7133A215A5F3084522695C914F2DD
:1005B00057556BB110C2E1BD3B51C0B7554C7112DC
:1005C00026C70DF951A43802057FB8F1724BBF71EF
:1005D0008914F37738D97124F30011A1D8D469278D
:1005E000083735C9119D901C0EE71CFF2D1EE8929F
:1005F000E11810957CE080F4964321F97521643868
:10060000DD9F1E9516DA561D4F9A53B2E2E418CBC1
:100610006B1A65EB56C63BE5FED8263F3A84597205
:1006200066A2F375FFFB60B322AD3F2D6BF9EBEAD9
:10063000057CD88F6D2C989E2B93F15E46F08749F0
:10064000297368D77FF9F0E57DDB1D7519F3C45870
:100650009B1788A892E0BEBD8B1D8D9F5676ADAFCF
:1006600029E2D9D552F6B55635573AC8E15643195D
:1006700094D3049B6D35D80B5F4D198EECFA6491C1
:100680000A72202BBC1A4AFE8BFDBBED1B23EAAD80
:100690007282A1299971BDF095C103DD7BC2B23C84
:1006A0002854D368A472C86696E0D1D87FF8D126C2
:1006B0002BF7ADBA55CA15B932C3E588978E5CFBE6
:1006C00092258BBFA245557AA76F8B575BCF0ECB78
:1006D0001DFB208277A88CCC16CE1DFADECC0B62D7
:1006E000FECCE1B7F0C381647340A0C24D8911759F
:1006F0003355338DE84AFDEA6E300BD7312CDE4797
:10070000E3BFF85542E27F59E517EF99346991B19B
:10071000238E20872DA8FED58AF3843AF037E4098A
:100720000054EE674993E48170E3904DEFFE41B7CA
:10073000997BC183BA62126F7DDE6BAFDA16F95511
:1007400051EEA60C2B02A3FD8DFB3017E46FDF36B4
:1007500071C4CA872548B047ECEAB4BFA54D9B9F3A
:100760000293C4E3E4E8422D6881150AEB845BD66A
:10077000A874FB7D1DCB2CDA462A7662CEBC5C9E2B
:100780008BE7CFBE78F57CEBB33A9CAA6FCC72D1E5
:1007900059F21123D63F48D1B7CEB0BFCBEA80DEA5
:1007A00057D45E972F75D1508E802C6679BF724BCF
:1007B000BD8A816CD3E101DCD21526C536DA2C1A4C
:1007C000C02794EDB79B850B5E8097C5EC4FEC88F6
:1007D0005D50073547DC0B3B3DDD60AFA85D8138E0
:1007E00024255D5C15D1DEB3ABEC0569EF83ED57D5
:1007F00054B8646411163269DA9F2D7F36BB445AAF
:1008000034E87FBF03EB007F59682279CF736C2CEB
:1008100029A7A15F38A11DF02053E01A6314587175
:1008200010AA080C3E161A6022827FBAA443A0D0F8
:10083000AC1BD56B64B51493319E5350D05766EE04
:100840005A4FFB032A695876F183F74EBA8C420659
:10085000605D6DCE6088AEA4C3F103A54B98A1FF87
:1008600067E1ACA2B862D76FA031B4D277AF2110E4
:1008700006C69AFF1D09170E5FF1AA54344B458A2C
:100880008763A6DCF9243067C6B2D6613369EE50BF
:10089000615728E77EEEEC3A5A734EA88DE418EAC9
:1008A000EC4164C8E2E866B62DB6FB6A6C16B3DDAF
:1008B0004643B973006A71ED4E9D251AC33C4A95B3
:1008C000159935811402D6989BECD8233B8429AF27
:1008D0000C9983A69A344FFAE8D03C4BD0FBB6680B
:1008E000B89E8FCDF7602D7A22E57DAB651B95A76D
:1008F000A87FB677477B5F8B1272D0D491EFDE1959
:10090000503CA78BC4A9B323CB76E681F0C1048FFA
:10091000A3B8545B97AC19FF3F55272FE01D429BAE
:1009200057FC4B4E0FCE98A9435703BDE7C894DF41
:100930006E367332B4EF2E857A6EFC6C1882753584
:100940009007F3E49F3EDC68F3B5F31980920699B3
:10095000A2E86FFF2E7FAE42A45FFBD40E812BC3B3
:1009600004FF2BB3744E365B9C1500C6472BE88BF7
:100970003DF19C039A587F9B9CBF854979352E5643
:100980007B411439478326AA078998111B86E77390
:100990007AD87D786153E979F5368D449284F913DC
:1009A00050583BA46A3665498E3C0EF16FD284C420
:1009B0007E8E3F39AE7C84F163378E3CCC3E4481E1
:1009C00045F14BB9ED6B365DBB20601A0FA3AA55FC
:1009D000773AA9AE374DBAB8866BBC0850F6CCA4AE
:1009E000BD1D4072A586FAE210AE3D584B97F34309
:1009F00074A99EEB21B701A4869397EE2F4F3B86F7
:100A0000A1416F412690785C7F30384B3FAAECEDD6
:100A10005C6F0EAD4387FD9335E601EF412690995B
:100A20009EFB195BADD2918AE046AF65FA4F84C157
:100A3000A12DCF458BD38550557CF96788D44EE9DD
:100A4000D76B6154A1A4A6A2C2BF309C409F5FD7C0
:100A5000692B24825ED9D6A712541AF7559F765077
:100A6000A99584E66B6DB59654D6CDB3A19B46A7E8
:100A7000944DC494B498E3E1E234D533160754CDD1
:100A8000B77753DB4F4D469DE9D49C8A36B6B838CC
:100A9000266C0EFF9C1B438B80CCB93DDAC7F18AD4
:100AA000F26DB8D7742F7E1EB7D34AB4ACFC794828
:100AB0006CBC96B69446572DB0A3FC1EB952608507
:100AC0002D41D043011E1CD57DFCF3960DC7CB2ACA
:100AD000299A93DD882D375DAAFB4968A09C508632
:100AE0007F685657F9791839D4E001843361CAA573
:100AF000D2D6E4C98A4A23444EBCF0DC24A1A0C467
:100B0000E2073C10C4B5254B6563F480E7CF61B1C3
:100B1000718221872CF59100320CECA9B59A74856D
:100B2000E3368F764F9C6DCEBCAD0A4BED7604CB91
:100B3000C3B9339E019396697DC5A245799B045C38
:100B40008409ED8843C7AB931426A140B5CE4EBFB0
:100B50002A42853E2C3B54E8121F0E9759B2278932
:100B6000FAF2DF8E6859DC06BCB6850D0622ECB1C0
:100B7000CBE504E63DB3B04173083F3C588663EBD8
:100B800050EE1D2C3774A9D318A3476E9354AD0AA9
:100B90005DB82A555D78F6EEBE8E3C7669B940C2E6
:100BA00034EC2AB9ED7E20E48D0038C7E68F44A8E6
:100BB00086CEEB2AE990F14CDF32FB731B6D921E5F
:100BC00095FEB4DB65DF4D23548948BF4A2E70D6AD
:100BD000D762B43329B13A334C236DA676A521638D
:100BE00048E6905DED90950B7A84BEB80D5E630C7F
:100BF00062264C145AB3AC23A474A76F333005603B
:100C00000142A028B7EE1938F164808243E1412700
:100C10001F1F90547AD5232ED13DCB28BA587FDCA4
:100C20007C9124E92851836EC5562142EDA05622BD
:100C3000A140806BA8F794CA136B0C39D9FDE9F376
:100C40006FA69EFC708AB3BC593C1E1D6CF97CAF2C
:100C5000F9887195EB5700BD9F8C4FE12483C52225
:100C6000EAFDD30CE217187C6A4CDE77B4539B4C38
:100C700081CD2360AA0E25739C02793230DF74DFA8
:100C80007519F4A5145CF77AA8A591847C60030615
:100C90003BCD50B6279CFEB1DDCCD3B05924B2CAAF
:100CA000E21C81229D078F8EB9BE4EFAFC3965BACF
:100CB000BF9D12375E977EF389F55DF5E3098C627F
:100CC000B5209D0C538A681BD28F75175DD4E5DA69
:100CD000756219146A262DEBF8AF37F06CA455B184
:100CE000BCE233C09ACAB011494F689B3B6B3CCC05
:100CF00013F6C785616842AEBBDDCD4516291DEAF6
:100D0000DBC803943CEE4F8211C3EC28BD970599D4
:100D1000DED7BB5E221FD4EB64D992D985B76A05B2
:100D20006AE42441F1CDF0D83FF89E0ECD0B7A70E5
:100D30006B5A750A6A3388EC17750870102F24CF28
:100D4000C4E942006194CA1F3A7606FAD24881F09B
:100D500077600345D961F4A46F3DD930C3046B5467
:100D60002AB7EC3BF44BF5685226CEFF5D1991A0F3
:100D7000A3A5A9B1E023C40A774DF95120A3A5A9E1
:100D8000B1C10082868E7F5D1991A0A3C4EB540B84
:100D9000756852078C9A978D79706246EF5C1B9547
:100DA000897141E121A1A1A1C002674C1AB6CFFD12
:100DB000785324ABB5C9F16023A5C812876D5813C9
:100DC000858892876D5832C70C9A97ACDA36EE5EFA
:100DD0003EDF1DB8F2662FBDF87247ED58138588C7
:100DE00092878C7B550990A2C6EF3DF85324ABD473
:100DF0002AB7EC5A36EE5E3EDF3CFA764FFD5930AC
:100E0000E246EF3DF853056931C10082868E7F5D71
:100E100019B0E227CCFB744B148B948B756833C5E7
:100E20000892878C9AB6CF1CBAD70D98B2E62FDC01
:100E30001B9589716023C40A968F9CBAF66E3FFC9D
:100E40005B15A8D226AFBDF872662FDC1BB4CB149D
:100E50008B94AAB7CDF951018082866F3DD930E2DB
:100E600027CCFB744B14AAB7CDF97043046B35C97A
:100E7000F16023A5C8F3450892876D5832E62FBD6F
:100E8000F872664E1EBEFE7E7E7E5F1D9991A0A307
:100E9000C40A774D1893A4ABD40B754910A2C6EFC2
:100EA0003DF85324ABB5E833E44A16AEDE1FBCDB95
:100EB00015A8B3C5087345E931C1E121A1A1A1C0BD
:100EC00002866F5C3AD70D9893A4CA16AEDE1F9DBA
:100ED00099B0E246EF3DF872470C9AB6CFFD591132
:100EE000A0A3A5C8F3450892876D39F043048A96FC
:100EF000AEDE3EDF1D9991A0C2066F3DF872470C31
:100F00009A978D989385887345E931E023A5A9D0F8
:100F100003848A96AEDE1FBCDB15A8D226CEFF5D09
:100F20001991818082672DD813A4ABD40B94AAB7F2
:100F3000CDF95120A3A5C8F345E95022C6EF5C3A8C
:100F4000D70D9893858873644AF74DF95120A3C44F
:100F50000A96AEDE3EFE7E7E7E5F3CFA764FFD78E0
:100F600072662FBDD930C3E54812878C7B5528D2D5
:100F7000078C9A97ACDA178D795120A3C4EB540BE8
:100F8000948B94AAD62EBFFC5B15A8D226AFDC1B8F
:100F9000B4EA37EC3BF46A37CD1893856931C1E187
:100FA00040E325C812878C9AB6CFFD5911A0C2061E
:100FB0008E7F5D38F2470C7B746A37EC5A36EE3F11
:100FC000FC7A764F1C9B95897141006344EB542A4F
:100FD000D60F9CBAD70D9893856931C10082868E51
:100FE0009EBEDF3CFA572CDA36EE3FFC5B1589716A
:100FF000410082868E7F5D38F247ED5813A4CAF710
:101000004DF95101806344EB542AD62EBFDD19916E
:10101000A0A3A5A9B1E042068E7F5D1991A0A3C44B
:101020000A968F7D7872470C7B746A562EDE1FBC41
:10103000FA570D7951016121A1C0E325A9B1C1E1A0
:101040004002674C1A978D9893A4ABD42AD60F9C74
:101050009BB4CB14AAB7CDF95120A3C4EB35C9F189
:101060006042068E7F7C7A766E3FFC7A766E5E3EBC
:10107000FE7E5F3CDB15897141E121C0E344EB5406
:101080002AB7CDF9706227ADD832C70C7B744B14E8
:10109000AAB7EC3BD528D2076D39D120C2E74C1A4C
:1010A000978D98B2C70C5928F39B29001E001F008A
:1010B0002000210022002B0014001A000800150057
:1010C0001700E10004001600070009000A00E00014
:1010D0001D431B00060019000500000001512A00F5
:1010E000E0002C004A002A002700260025002400EA
:1010F00023002D00130012000C0018001C00340007
:1011000033000F000E000D000B0031003843370094
:10111000360010001100000002514C00E7002800CA
:10112000E60035021E021F02200221022202005C9C
:1011300001000100010001002F0001004A004B00E6
:101140004E004D00260201000100010001000100D7
:101150000100000001002A00E0004A002C004C00C1
:10116000270226022502240223022E02010061002A
:1011700060005F00300031022D005E005D005C0009
:1011800027022D022E005B005A00590001000000CA
:101190000100E400E700E600280045003A003B00BB
:1011A0003C003D003E0001000100C55CC35CC45C26
:1011B0002F0001005000520051004F002602010094
:1011C00001000100010001000100000001002A00EF
:1011D000E0004A002C00440043004200410040006F
:1011E0003F00A80047004900530001003000A9005B
:1011F0000100AB00AE00AC002702AA000100010014
:1012000001000100010000000100E400005CE600B4
:10121000280001000100010001000100010001009F
:1012200001000100010001000100010001000100B6
:1012300001000100010001000100010001000100A6
:1012400001000000F3002A00F200F1002C00010070
:101250000100010001000100010001000100010086
:101260000100010001000100010001000100010076
:101270000100010001000100010001000100000067
:10128000F300E400F200F1002800140343006800BA
:101290006100720079006200640069007300000060
:1012A0002403420061007300740061007200640056
:1012B00020004B006500790062006F006100720041
:1012C00064007300000004030904090254000301D0
:1012D00000A0FA0904000001030101000921110125
:1012E00000012240000705810308000A09040100EB
:1012F0000103010200092111010001224700070535
:10130000820308000A090402000103000000092109
:10131000110100012232000705830320000A120197
:10132000000200000008F8A83318010001020001C3
:1013300005010980A101850319012AB700150126BD
:10134000B700950175108100C0050C0901A1018548
:101350000419012AA002150126A002950175108129
:1013600000C005010902A1010901A1000509190137
:10137000290815002501950875018102050109302C
:1013800009311581257F9502750881060938158177
:10139000257F950175088106050C0A3802158125FF
:1013A0007F950175088106C0C005010906A10105E8
:1013B0000719E029E71500250195087501810295B7
:1013C00001750881010507190029FF150026FF0096
:1013D000950675088100050819012905950575010F
:1013E0009102950175039101C00011241FBECFEF3A
:1013F000DAE0DEBFCDBF04B603FE27C08091F6025F
:101400009091F702A091F802B091F9028730904BC9
:10141000A740B04BD1F41092F6021092F70210924E
:10142000F8021092F90214BE84B7877F84BF0FB60A
:10143000F894A89580916000886180936000109274
:1014400060000FBEE0E0F8E3099511E0A0E0B1E034
:10145000ECE1F3E602C005900D92AE3DB107D9F77D
:1014600022E0AEEDB1E001C01D92A63FB207E1F768
:101470000E94BE1F0C9468310C94000030E020E004
:1014800043E060E080E30E942F2595E09A95F1F714
:101490000000089585E08A95F1F700000C94D725A7
:1014A000CF93DF93C82FD62F803511F01092E00133
:1014B0000E943E0A8C2F80680E94A7258D2F0E94D3
:1014C000A725EC018AE68A95F1F700C08FE891E044
:1014D0000197F1F700C000000E94D725CE01DF91EF
:1014E000CF910895CF93C82F0E943E0A8C2F8F77FB
:1014F0000E94A7250E94BF25C82F85E08A95F1F795
:10150000000085E68A95F1F700000E94D7258C2F10
:10151000CF910895CF93DF93EC010E943E0ACE0154
:1015200064E670E00E94DC30615071096837710533
:1015300010F067E770E08FE00E94500ADF91CF91D2
:101540000C94D725CF93DF936DE183E10E94500A7D
:101550008FE39CE90197F1F700C0000068E183E1A7
:101560000E94500A0E943E0A82EE0E94A72590E542
:101570009A95F1F7CCEAD0E080E1CA3AD807C1F4F5
:10158000EFE1F3E03197F1F700C000008AE20E943A
:10159000720A60E080E10E94500A0E94D7258FE322
:1015A0009CE90197F1F700C00000DF91CF91089509
:1015B000FE0184910E94A725F0E5FA95F1F72196A6
:1015C000DBCFCF93DF9380E00E94720AD82F8FE3A6
:1015D0000E94720AC82F8AE20E94720AD23459F419
:1015E000CD3B49F491E0843009F090E0892F81707F
:1015F000DF91CF91089580E0FACF209A0E942725AD
:101600001092E0010E94D7250E943E0A0E94D72531
:1016100066EB8BE30E94500A2FEF85EA9EE0215093
:1016200080409040E1F700C000000E943E0A25ED96
:101630002A95F1F700000E944A0A85ED8A95F1F794
:1016400000006AE58AE30E94500A9FEF20E782E0EB
:10165000915020408040E1F700C0000082E00E94ED
:10166000720A83E00E94720A84E00E94720A85E096
:101670000E94720A86E00E94720A0E94A20A0E94D8
:101680004A0A8FE39CE90197F1F700C0000080E46B
:1016900096E00E948A0A8FE99FE00197F1F700C067
:1016A000000060E080E10E94500A67EE81E10E9444
:1016B000500A0E94E10A289808959F92AF92BF9223
:1016C000CF92DF92EF92FF920F931F93CF93DF930E
:1016D000EC018091E001811107C060E080E50E948B
:1016E000500A81E08093E0010E943E0A80E50E945A
:1016F000A7258AEB8A95F1F700C00E94BF25F82E36
:1017000080E00E94A7250E94BF256C010E94BF2592
:10171000B82E0E94BF258C010E94BF25E82E0E9492
:10172000D7259F2C991C9924991CAA24A394F3FCD7
:10173000A12CDB28D194C194D1081E2911950195C3
:1017400011090E94D7258F2D877011F01092E001AA
:10175000F8829982AA82DC82CB82BD821F830E83AB
:10176000E886CE01DF91CF911F910F91FF90EF900E
:10177000DF90CF90BF90AF909F900895FC01618360
:10178000428308950F931F93CF93DF93CDB7DEB7B6
:1017900029970FB6F894DEBF0FBECDBF8C01CE01E6
:1017A00001960E945D0B8B81882369F18A818823D1
:1017B00051F14F8158854038510514F04FE750E002
:1017C00041388FEF580714F441E85FEF6C817D8159
:1017D0006038710514F06FE770E061388FEF7807BB
:1017E00014F461E87FEF719561957109C80129963C
:1017F0000FB6F894DEBF0FBECDBFDF91CF911F9122
:101800000F910C94BE0B29960FB6F894DEBF0FBE55
:10181000CDBFDF91CF911F910F9108958091E1018C
:10182000882359F0E091C102F0E0EE0FFF1FE05075
:10183000FF4F808191810C948A0AE091C002F0E010
:10184000EE0FFF1FE85FFE4FF4CFCF92DF92EF92D3
:10185000FF920E946E126B017C0143E00E94811294
:101860009091E101891731F081E098279093E1018F
:101870000E940E0CC701B601FF90EF90DF90CF9051
:101880000895EF92FF921F93CF93DF93EC017B01BA
:101890000E949A0D182F882349F0C4368DE5D80789
:1018A000E9F058F4C336DD4509F441C0812FDF91DA
:1018B000CF911F91FF90EF900895C5368DE5D80721
:1018C00009F467C0C636DD4589F78091E10191E0F2
:1018D00089278093E1010E940E0CE8CFF701D281A5
:1018E000DD2321F30E943B17C82F0E9461178C2B28
:1018F00082729091C1028823C1F091509093C102ED
:101900008091C102843008F083E08093C10260912D
:10191000C0027091C1028091C2029091C3020E94E4
:101920001D180E940E0C1D2FC1CF9F5FE7CFF7013E
:10193000D281DD2309F4BACF0E943B17C82F0E9441
:1019400061178C2B82729091C002882301F1915013
:101950009093C0028091C0028C3008F08BE080939D
:10196000C0026091C0027091C1028091C202909148
:10197000C3020E941D18E091C002F0E0EE0FFF1FAD
:10198000E85FFE4F808191810E948A0ACCCF9F5FE1
:10199000DFCF8091E20191E089278093E2018111FC
:1019A0000CC0E091C002F0E0EE0FFF1FE85FFE4FB9
:1019B000808191810E948A0A79CF84E690E0FACFF3
:1019C000E4ECF2E011821082138212820C94AE18C1
:1019D0000E94FD0AE091C002F0E0EE0FFF1FE85FF9
:1019E000FE4F808191810C948A0ACF93DF9300D0BF
:1019F00000D00F92CDB7DEB70E94C72229833A8369
:101A00004B835C836D83CE0101960E94C20B809153
:101A1000E201882309F44FC08A812091C4023091E9
:101A2000C502280F311D87FD3A953093C5022093DA
:101A3000C4024B818091C6029091C702840F911D10
:101A400047FD9A959093C7028093C602AC01445F0C
:101A50005F4F49315105A0F06CE070E00E94F0301A
:101A6000660F771F6A3F8FEF7807B4F16730710513
:101A700014F066E070E06C831092C7021092C60208
:101A8000C9014E96CD97A8F0C9016EE170E00E94A1
:101A9000F030660F771F613F8FEF7807FCF0603101
:101AA000710514F06FE070E06D831092C502109222
:101AB000C4021A821B8249815A816B817C818D818B
:101AC0000E94E7220E9491220F900F900F900F909A
:101AD0000F90DF91CF9108956AEFCDCF61EFE4CF02
:101AE000E0ECF2E0108211828091080190910901EE
:101AF0000E948A0A6091C0027091C1028091C20264
:101B00009091C3020E941D180C9429180E94191864
:101B10006093C0027093C1028093C2029093C3028B
:101B20006C3010F4743010F00E94700D0C94811B16
:101B300081E0089581E0089508950C949C0D1F9311
:101B4000CF93DF9300D000D00F92CDB7DEB749839B
:101B50005A836B833091E30189819A8131111DC0D1
:101B60006623B9F02223A9F00E949E13182F682F34
:101B700089819A810E94471369817A81812F0F9010
:101B80000F900F900F900F90DF91CF911F910C94B9
:101B9000681A0E947513182FEFCF0E949E13698157
:101BA0007A81EDCFFC01262F4081518162817381C2
:101BB00084810C949F0D81E00895CF93DF93EC0115
:101BC00060E00E94D20DBE01DF91CF910C949D0D7B
:101BD0000E945D1B0E94590E0C94860D0C94831B71
:101BE00008950E94DD110E94F00D2FEF84E39CE028
:101BF000215080409040E1F700C000000C94FB2988
:101C00000F931F93CF93DF938C0161E00E94D20D5D
:101C1000EC01B8010E94410C8823A9F1B801CE0162
:101C20000E948823882379F1B801CE010E94DA232B
:101C3000882349F1B801CE010E94FD24882319F1BF
:101C4000F8018281882361F0CB35FDE5DF0721F1C2
:101C500070F4C115ECE5DE07A1F0CF3DDC45C9F01D
:101C6000C801DF91CF911F910F910C94980DCC3545
:101C70008DE5D807A1F0CD35DD4591F70E942C17F1
:101C8000EFCF0E94F10D80E0DF91CF911F910F9176
:101C900008950E948D18F7CF0E943517E1CF0E945A
:101CA0003817DECF08950C94520E81E008950C94FD
:101CB000550E0895CF93C82F0E94530E8C2FCF91AD
:101CC0000C94570ECF93DF93CDB7DEB72B970FB69B
:101CD000F894DEBF0FBECDBF4F83588769877A87E0
:101CE0008B8761110E945B171E821D8285E0FE01B9
:101CF0003796DE01119601900D928A95E1F78C815D
:101D00009D81892B89F449815A816B817C818D81E8
:101D10009E810E945B162B960FB6F894DEBF0FBE15
:101D2000CDBFDF91CF91089589819A8189238F3F1B
:101D300051F3CE0101960E94DB0D8111E4CFEBCF70
:101D4000FC01808191810C94E0130F931F93CF933A
:101D5000DF9300D000D00F92CDB7DEB7082F162F3B
:101D60000E94C7223A834B835C836D83002389F0F2
:101D7000212B422F5A816B817C818D810F900F9096
:101D80000F900F900F90DF91CF911F910F910C94B6
:101D9000E72210952123EDCFCF93C82F882309F494
:101DA00047C08CEF8C0F813AA0F46C2F80912001FA
:101DB000909121010E948F28882329F08C2F0E9466
:101DC000FC160E947E178C2F0E94F516CF910C9462
:101DD0007E1780E28C0F883048F4C77081E001C024
:101DE000880FCA95EAF70E943E17F0CFEBE5EC0F9B
:101DF000E33040F4F0E0E756FE4F808190E0CF9171
:101E00000C945128E8E5EC0FE73150F4F0E0EE0FC8
:101E1000FF1FE559FE4F80819181CF910C94672877
:101E2000CD3E30F08C2F0E944C20CF910C941F217E
:101E3000CF910895882361F19CEF980F913A20F497
:101E40000E94FC160C947E1790E2980F983050F484
:101E5000877091E001C0990F8A95EAF7892F0E9457
:101E60004417F0CF9BE5980F933020F490E080E08A
:101E70000C94512898E5980F973120F490E080E079
:101E80000C9467288D3E20F00E94A6200C941F2100
:101E900008951F93CF93DF93182FEB010E94CC0E70
:101EA000209731F4812FDF91CF911F910C941A0F5D
:101EB0008FE99FE00197F1F700C000002197F0CF74
:101EC00070E060E0893311F460E570E00C94490F34
:101ED000882321F00E943E170C947E1708958823D2
:101EE00021F00E9444170C947E170895BF92CF9260
:101EF000DF92EF92FF920F931F93CF93DF937C01BA
:101F0000D62FC72FFC011281058102950F700E9408
:101F10001317D82E8823A1F0D12E112389F08C2FEE
:101F2000807F803429F080E28D0FD12C883040F002
:101F300082E00E94CF170E94131791E0D82ED92675
:101F4000CC2EC2949FE0C922FBE0FC1598F1EC2D49
:101F5000F0E0E659FE4C0C9404310C2F0F70C07F5A
:101F600011F00295007F1123A9F0002359F080E2BF
:101F70008D0F883010F0D11109C0802F0E943E17BC
:101F80000E947E178D2F0E94CC0E14C0802F0E94BD
:101F90004E17F6CF8D2F0E941A0F002359F080E2C2
:101FA0008D0F883010F0D1112BC0802F0E94441764
:101FB0000E947E17EC2DE850FF0B349720F40E940E
:101FC00028280E945A0EDD2009F498C10E940F179C
:101FD00080FD94C1F70112820E9409170E94AB1282
:101FE000C7010E949F110E940917DF91CF911F9195
:101FF0000F91FF90EF90DF90CF90BF900C94CC1298
:10200000802F0E945417D4CF2C2F2F70B22EC07F58
:10201000C03219F0B29480EFB822DD2339F0D1300C
:1020200019F1112361F1002321F1ACCF112381F0CB
:10203000011106C00E9461178B290E94680FBACF58
:102040000130C1F70E9461178B290E946717B2CF38
:10205000011106C00E9474178B2D0E946F0FAACF2A
:10206000013009F4A7CFF6CF112329F0063008F08C
:10207000A1CF8B2DE2CF053008F09CCFEDCF002310
:1020800059F3D93349F43FEF87EE93E03150804064
:102090009040E1F700C000008D2F0E941A0F8ACFF8
:1020A0008C2F86958695837069F0813009F082CFF8
:1020B0008D2F9C2F9370111102C090E080E00E9440
:1020C000672878CF8D2F9C2F9370111102C090E05C
:1020D00080E00E9451286ECF8D2F112391F00E9435
:1020E0004C20ED2FE15FFF0BE830F10568F461E073
:1020F00070E001C0660FEA95EAF7812F0E94A50EF5
:1021000059CF0E94A620EDCF0E941F2153CF8C2FC4
:10211000837009F041C011114DCF4D2F4295469566
:102120004770440F440F0D2F0F7010E030E020E097
:10213000042E04C0000F111F221F331F0A94D2F770
:1021400060E070E0CB01D4FF0FC06FE070E080E092
:1021500090E004C0660F771F881F991F4A95D2F739
:102160006095709580959095C695C695C370602BC7
:10217000712B822B932BC23049F058F4C13019F0E7
:102180000E944A1217CF0E94381214CF0E945C128C
:1021900011CF0E9436120ECF8695112311F08C2F8D
:1021A0008170882309F406CF4D2F429546954770DC
:1021B000440F440F0D2F0F7010E030E020E0042E8C
:1021C00004C0000F111F221F331F0A94D2F760E0D2
:1021D00070E0CB01D4FF0FC06FE070E080E090E0D2
:1021E00004C0660F771F881F991F4A95D2F7609524
:1021F000709580959095C695C695C370602B712B90
:10220000822B932BC23049F058F4C13019F00E9450
:102210002213D0CE0E941013CDCE0E943413CACE0A
:102220000E947012C7CECF70112329F08C2F0E940C
:10223000AB128D2F02CF8D2F0E946F0F8C2F0E941B
:10224000CC12B8CED23F89F160F4D03FC9F0D13F73
:1022500029F1112309F442C0011194CE8C2F8F7102
:1022600021C0D33F39F1D43FA1F7112369F1CF71D8
:102270008C2F0E94AB1263E08C2F0E94B4179ACE71
:10228000112341F0053008F095CE8C2F8F710E94FC
:10229000EF1290CE063008F08DCEF7CF8C2F8F71D5
:1022A000112369F20E94AB1285CE8C2F8F711123FE
:1022B000C9F3C5CF112329F08C2F8F710E9496127C
:1022C00079CE0E947C1276CE81E00E94CF17023038
:1022D00008F470CE82E00E94CF176CCE002359F034
:1022E000D93309F0D9CEFFEF27EE33E0F15020408B
:1022F0003040E1F7CFCE8C2F8F71A1CFDF91CF91FE
:102300001F910F91FF90EF90DF90CF90BF900895B5
:102310000F931F93CF93DF93EC01688179818A81BA
:102320000E94EA138C010E9446130E943512B801E4
:10233000CE01DF91CF911F910F910C94760FCF9327
:10234000DF93EC018B819C81892B29F08881998115
:1023500089238F3F59F4DF91CF910895CE010E94D8
:102360008811CE01DF91CF910C94DD0DCE010E943A
:10237000000E8111F3CF0E941317882361F38A8125
:10238000882349F382E0DF91CF910C94CF1790E03E
:1023900080E00E94512890E080E00E9467280E941F
:1023A0005B170E945E170E947E170E9445220C94C4
:1023B0001F210E9403170C94C7110E944B170C9405
:1023C000D911E92FE295EF70E250EE3070F4F0E0B1
:1023D000EA58FE4C0C940431803F19F020F4883EFA
:1023E00020F481E00895843FE1F380E00895883E81
:1023F000C0F3813FD1F7F5CF93FB882780F908958B
:10240000FC01808191810E94E0130C94E111CF9333
:10241000DF9300D000D00F92CDB7DEB70F900F90B2
:102420000F900F900F90DF91CF910895CF93DF938E
:1024300000D000D000D0CDB7DEB726960FB6F89406
:10244000DEBF0FBECDBFDF91CF91089508950C94EC
:1024500026120E942712609310027093110280933B
:102460001202909313020C94C71108950C94291230
:102470000F931F93009110021091110220911202EC
:1024800030911302602B712B822B932B1F910F9194
:102490000C9429120F931F930091100210911102B6
:1024A000209112023091130260237123822393231F
:1024B0001F910F910C9429120F931F9300911002FA
:1024C000109111022091120230911302602771279E
:1024D000822793271F910F910C9429120C94261296
:1024E0000E94250C60930C0270930D0280930E02E3
:1024F00090930F020C94C71160E070E0CB010C9434
:102500007012611571058105910529F481E044235C
:1025100061F080E00895DC01CB0104C0B695A79579
:10252000979587954A95D2F7817008950F931F93D9
:1025300041E050E060E070E08A019B0104C0000FC0
:10254000111F221F331F8A95D2F7C901B8011F91AD
:102550000F910C9470120F931F9341E050E060E0D4
:1025600070E004C0440F551F661F771F8A95D2F78D
:1025700080910C0290910D02A0910E02B0910F0279
:102580008A019B01082B192B2A2B3B2BC901B8016F
:102590001F910F910C9470120F931F9341E050E024
:1025A00060E070E004C0440F551F661F771F8A95D6
:1025B000D2F7CB01BA016095709580959095009106
:1025C0000C0210910D0220910E0230910F02602337
:1025D0007123822393231F910F910C9470120F93F8
:1025E0001F9341E050E060E070E004C0440F551FCD
:1025F000661F771F8A95D2F780910C0290910D0289
:10260000A0910E02B0910F028A019B0108271927A1
:102610002A273B27C901B8011F910F910C94701212
:102620000F931F9300910C0210910D0220910E0246
:1026300030910F02602B712B822B932B1F910F91E6
:102640000C9470120F931F9300910C0210910D02C5
:1026500020910E0230910F02602371238223932375
:102660001F910F910C9470120F931F9300910C0205
:1026700010910D0220910E0230910F0260277127F8
:10268000822793271F910F910C9470120895E92FC0
:10269000EE0FE90FEE0F8E0F982F977041E001C0FB
:1026A000440F9A95EAF786958695869595E0899FD9
:1026B000F0011124EC51FE4F30E020E070E0519128
:1026C000DF011197CB01022E02C0969587950A94DF
:1026D000E2F7817081958527842385278C932F5F6E
:1026E0003F4F2530310559F70895E92FEE0FE90FD7
:1026F000EE0F8E0F982F977086958695869525E01C
:10270000829FF0011124EC51FE4F50E040E080E048
:10271000219130E0092E02C0369527950A94E2F700
:1027200021703327042E01C0220F0A94EAF7822B6E
:102730004F5F5F4F4530510559F70895BF92CF92D3
:10274000DF92EF92FF920F931F93CF93DF938C0151
:10275000C0900C02D0900D02E0900E02F0900F029B
:102760008091100290911102A0911202B091130277
:10277000C82AD92AEA2AFB2ACFE1D0E0BC2ED70109
:10278000C6010C2E04C0B695A795979587950A9417
:10279000D2F780FD0EC0219788F7B12C8B2DDF91E9
:1027A000CF911F910F91FF90EF90DF90CF90BF904E
:1027B0000895B8018C2F0E947C1A019761F3EECF27
:1027C000CF93DF93EC010E949E13BE01DF91CF9166
:1027D0000C947C1A1F93CF93DF93EB019091E3014C
:1027E000992331F0CB01DF91CF911F910C94E0132D
:1027F000882379F0CB010E949E13182F682FCE01F9
:102800000E944713BE01812FDF91CF911F910C943D
:102810007C1ACB010E947513182FF4CF1F93CF930E
:10282000DF93C091140216E0809115028C1304C04E
:10283000DF91CF911F910895D0E01C9FF0011D9F63
:10284000F00D1124EA5EFD4F408151816281738158
:10285000848195810E9416122196C770E5CF409120
:10286000460250914702609148027091490280915E
:102870004A0290914B020C941612209114029091EE
:10288000150256E0291302C080E0089530E0529FFF
:10289000F001539FF00D1124EA5EFD4F7181761314
:1028A00006C07081781303C07281741304C02F5F57
:1028B0003F4F2770E7CF81E008951F93CF93DF93B9
:1028C00080914B02807FA9F480914802882389F08F
:1028D00080911402C09115026091460270914702E6
:1028E000A0914902B0914A02D62FD72316E0C8130F
:1028F00004C0DF91CF911F91089590E0109711F0DF
:10290000DF3F19F401968770F2CF189F9001199F4D
:10291000300D1124F901EA5EFD4F41814713F2CFDA
:1029200040814613EFCF42814111ECCF4381548166
:102930004A1B5B0B483C510528F780914B028F7076
:10294000806180934B02F901E55EFD4F80818F70BD
:102950008061808386E492E00E949F11DF91CF9195
:102960001F910C940E148F929F92AF92BF92CF92B0
:10297000DF92EF92FF920F931F93CF93DF93CDB728
:10298000DEB761970FB6F894DEBF0FBECDBF8C01E6
:1029900085E0F801DE011D9601900D928A95E1F720
:1029A000D8011296EC90129786E4A82E82E0B82EF9
:1029B0004091490250914A024115510509F45CC108
:1029C0009091460220914702892F82238F3F09F47C
:1029D00053C1CC901196DC90119713968D909C90DA
:1029E0001497F0904802F401E41BF50BFF2009F462
:1029F00013C180914B02382F307FE83CF10508F07D
:102A0000CDC0311189C0FE2C2D1126C09C1124C0CF
:102A1000E11022C08F70806180934B020E942F14BE
:102A2000C5010E949F1180914B02D80115968C938D
:102A30008F2D61960FB6F894DEBF0FBECDBFDF912C
:102A4000CF911F910F91FF90EF90DF90CF90BF90AB
:102A5000AF909F908F9008958114910429F08D2D4F
:102A60008C218F3F09F024C180E080FF15C04E2DDE
:102A70006D2D8C2D0E943D14882371F086E492E028
:102A80000E949F1186E0E6E4F2E0DF011D928A9544
:102A9000E9F70E942F143EC0892829F08D2D8C2142
:102AA0008F3F09F002C180E0B82FB170AB2E80FFDC
:102AB00029C04E2D6D2D8C2D0E943D14B82E8111F4
:102AC00021C0CD86DE868D859E850E94E013292F4C
:102AD00022952F70223050F0243078F49F7051F0FE
:102AE000F8019581907F31F4FB2CA2CF9F7011F0FB
:102AF0008823D1F3805E8830B8F3C8010E949F110B
:102B0000BA2CF2CFEE2009F493CF80914B02816072
:102B100080934B02F12C8CCF2D1114C09C1112C04C
:102B2000E11010C015968C93C8010E949F1186E099
:102B3000F801A6E4B2E001900D928A95E1F70E94B7
:102B40002F1476CFC8010E940012882319F1EE20BD
:102B500009F180914B02803270F020914602309151
:102B6000470238872F8319869B868A868C87CE01F9
:102B700007960E949F1186E0F801A6E4B2E001905A
:102B80000D928A95E1F70E945D140E942F14FF2494
:102B9000F3944ECFC8010E949F11F9CF311112C09A
:102BA000782D998A888AA6016E2D89890E9407123C
:102BB00086E492E00E949F1186E0F50111928A95C9
:102BC000E9F767CF2D110FC09C110DC0E1100BC0AC
:102BD00015968C93C8010E949F1186E0F501119211
:102BE0008A95E9F725CFC8010E940012882391F247
:102BF000EE2081F280914B02803208F4BCCF20910C
:102C00004602309147023A8329831B829D828C823F
:102C10008E83CE010196ADCFE83CF105F8F4FE2C91
:102C2000EE2009F4B7CF2D110BC09C1109C086E02E
:102C3000F801A6E4B2E001900D928A95E1F7F8CE92
:102C4000C8010E940012811196CF80914B028160D1
:102C500080934B02C8010E949F11EACE782D998A79
:102C6000888AA6016E2D89890E94071286E0D50107
:102C70001D928A95E9F763CFEE2009F48BCFC80146
:102C80000E940012F82E882309F484CF86E0F80110
:102C9000A6E4B2E001900D928A95E1F786E492E015
:102CA0000E94A00E0E945D144ACF81E08E25FCCECA
:102CB00081E08E25DACE1F93CF93DF93CDB7DEB7B9
:102CC0002C970FB6F894DEBF0FBECDBF4F83588749
:102CD00069877A878B879C87CE0107960E94B314F9
:102CE000882369F08A859B85892B39F04F81588527
:102CF000842F85238F3F09F071C016E05FC086E006
:102D0000FE013796DE01119601900D928A95E1F74A
:102D10008A859B85892B89F38F81988589238F3FAD
:102D200061F32091150230E0C9010196877099275F
:102D3000409114024817190671F40E94DD11109297
:102D400015021092140286E0E6E4F2E0DF011D9223
:102D50008A95E9F7D2CF96E0929FD001939FB00D6C
:102D60001124AA5EBD4FFE01319601900D929A95F5
:102D7000E1F7809315020E940E14BFCF819FC0011E
:102D800011248A5E9D4F0E94B3148823E9F0E091DC
:102D900014021E9FF0011124EA5EFD4F4081518113
:102DA00062817381848195810E9416128091140240
:102DB00090E0019687709927809314028091140205
:102DC000909115028913DACF2C960FB6F894DEBFD6
:102DD0000FBECDBFDF91CF911F91089569857A8590
:102DE0008B859C850E94161288CF682F80912001C8
:102DF000909121010C94C528682F80912001909119
:102E000021010C94C72880912001909121010C94FC
:102E1000C92880914C028595859585950895809166
:102E20004C028770089590914C02977081E009F4EC
:102E300080E008959091C90292FB222720F928177B
:102E400051F080FB92F99093C9028091C802909151
:102E5000C9020C940C1808958091C90282FB88273E
:102E600080F991E089270C941A1781E00C941A17C5
:102E700080E00C941A17809158020895909158029E
:102E8000892B809358020895809590915802982339
:102E90009093580208951092580208959091570205
:102EA000892B80935702089580959091570298231B
:102EB0009093570208951092570208951092560267
:102EC000089580914D02089508950C94641790918F
:102ED000C90292FD08C090914D02981721F080938D
:102EE0004D020C946517089580914D02882329F0B6
:102EF00010924D0280E00C9465170895E091200136
:102F0000F0912101809158028083E0912001F0919D
:102F10002101808190915702892B8083E0912001CB
:102F2000F0912101808190915602892B80839091AC
:102F30004D02992381F0E0912001F09121018081DF
:102F4000892B808380912001909121010E947D280E
:102F500081110E94741780912001909121010C949D
:102F60003B2808950C94B1179091C90292FD10C0AE
:102F700098E0899F90011124622B60934C020E947B
:102F8000AB1280914C028595859585950C94B2176E
:102F90000C94AB1210924C0280E00C94B2179091FA
:102FA0004C028095892380934C02282F277039F496
:102FB000282F082E000C330B9217130621F4909142
:102FC000C90292FF07C08595859585950E94CC1210
:102FD0000C94CA17089590E080E00E942E3121E001
:102FE000893E9E4F09F020E0822F089582E090E014
:102FF0000C94203183E090E00C942031CF9384E056
:1030000090E00E942031C82F82E290E00E9420319F
:10301000982F8C2FCF910895CF93C92F682F84E0DC
:1030200090E00E9434316C2F82E290E0CF910C94BA
:1030300034318FE090E00C942831AB01BC018FE07B
:1030400090E00C944631AB01BC0183E190E00C941C
:10305000463160E070E0CB010C94231869EE7EEFFE
:1030600090E080E00E94523160E082E090E00E94B7
:10307000343160E083E090E00E943431109210021D
:1030800010921102109212021092130260E084E07A
:1030900090E00E94343160E082E290E00E9434319E
:1030A00060E085E090E00E94343160E086E090E0EE
:1030B0000E9434316FEF87E090E00E94343140E0AD
:1030C00050E0BA0188E090E00E94463160E08DE077
:1030D00090E00E94343140E050E0BA0188E190E095
:1030E0000E94463160E087E190E00E94343140E088
:1030F00050E0BA018CE190E00E94463170E060E05F
:1031000080E290E00E94523140E050E0BA0188E154
:1031100090E00E9446310C94700D0C942E18682F8C
:103120008EE090E00C9434310E94A02960936802F4
:103130007093690280936A0290936B0260936402B9
:10314000709365028093660290936702089585B735
:10315000806885BF85B7806885BF08950895089504
:1031600008950C94B0180E94A7188AE59BE10E946C
:103170001F2A0E94AF180C94E00C0C948F1D089528
:1031800008950E94BF180C94C0180E948B290E94B9
:10319000D0280E943C1C0E9404230E94E80C0C943E
:1031A000B118AF92BF92CF92DF92EF92FF920F933E
:1031B0001F93CF93DF93CDB7DEB72A970FB6F8945E
:1031C000DEBF0FBECDBF0E94051D81110E94941865
:1031D0008AE5A82E82E0B82E10E000E0C02E802FF5
:1031E0000E94851BE82EF501F1905F01F81609F4A5
:1031F0004FC080916C0281FD0E948B1B8F2D8E250C
:10320000D12CFF24F394982F9F21E9F10E94BD183F
:10321000882399F0DE82CF82EF2081E009F480E0FC
:1032200088870E9494298160782F9A8789874E81A8
:103230005F8168858A850E94620EF801E65AFD4F1B
:103240008081F826F0820E943A210E94F50C0E94AB
:10325000282890915902891791F10E94282880937B
:1032600059022A960FB6F894DEBF0FBECDBFDF918C
:10327000CF911F910F91FF90EF90DF90CF90BF9073
:10328000AF900C945A0ED394FF0CF6E0DF12BBCF34
:103290000F5F1F4F0A30110509F0A0CF8FEF898310
:1032A0008A831B820E9494298160782F9D838C835E
:1032B00049815A816B818D810E94620EC4CF2A960A
:1032C0000FB6F894DEBF0FBECDBFDF91CF911F9137
:1032D0000F91FF90EF90DF90CF90BF90AF90089547
:1032E000CF93DF930E94801AEC01811521E59207AC
:1032F00008F042C0811530E5930708F09DC0883E74
:10330000910530F5803E910508F092C0883A91050C
:1033100088F4853A910508F084C08130910509F45C
:1033200087C0009709F484C0049708F081C0D0E0FA
:10333000C0E07EC08F3B9105D0F7C85AD0E0CC0FDB
:10334000DD1FC456DE4F0990D881C02DD46470C0F3
:103350008115904250F4C11581E0D80708F068C08B
:10336000CD3ED10520F3D06563C0C11590E4D907E7
:10337000F0F2DF70D06A5CC0811525E5920700F598
:10338000811534E5930708F08BC0811543E5940758
:1033900008F073C0C11582E5D80708F469C0CE01F2
:1033A0008370992721E030E002C0220F331F8A95F5
:1033B000E2F7C695C69580E2C89FE001112454C08B
:1033C000C11599E5D907A8F4C11528E5D20708F079
:1033D0006CC0C11536E5D30708F0A9CF8C2F0E9429
:1033E000171BC82FD0E0DC2FCC27CC27DF71D06291
:1033F0001FC0C1154AE5D40708F45CC0CE01905641
:103400008115904208F093CF8D2F8F710E94171B6A
:1034100090E0982F882788279F719C012C2BE90129
:10342000E6CFC55AD0E0C653DE4FC881D0E0D064A5
:10343000CE01DF91CF910895E4E096958795EA95C6
:10344000E1F783702C2F26952695237040E2249F68
:1034500090011124382B8C2F8370C1E0D0E002C082
:10346000CC0FDD1F8A95E2F7C22BD32BDC68E0CFAF
:10347000DC2FCC27C16FD06ADBCF8370992721E086
:1034800030E002C0220F331F8A95E2F7C695C69539
:1034900090E2C99FE0011124C22BD32BDA68C8CF78
:1034A000D82FCC27C46FD06AC3CFDC2FCC27C06FF6
:1034B000D06ABECF8C2F8F700E94171B34E0D69538
:1034C000C7953A95E1F7CF709C2FEC01D069B0CF4A
:1034D000972F70E026E0929F600D711D1124FB0173
:1034E0009CE3899FE00DF11D1124EE0FFF1FE655AF
:1034F000FF4E8591949108950E94681A0C9470195A
:1035000082389105B1F1B0F48133910509F475C0A9
:1035100048F48932910509F469C08A32910509F4A9
:1035200073C008958533910509F459C08933910515
:1035300001F10895833E9105A9F138F4803E91058B
:10354000F9F0823E910549F10895863E9105A9F171
:10355000873E9105C9F1843E910519F52091C90274
:1035600021FF1FC08091C80284FD14C087EE90E047
:1035700008952091C8022370A1F080EE90E0089594
:103580002091C80220FD47C03091C90230FF09C018
:1035900024FF44C090E080E004C02091C80222FDD6
:1035A000F7CF08952091C80222FD3BC03091C90297
:1035B00030FDE3CF24FFF5CFEDCF2091C80223FFEC
:1035C000F0CF24FDE7CFD2CF2091C80223FD2CC03D
:1035D0003091C90231FFEECF84EE90E00895209142
:1035E000C80225FFDECF89E290E008952091C8024D
:1035F00025FFD7CF85E390E008952091C80226FFEC
:10360000D0CF8AE290E008952091C80226FFC9CF6A
:1036100081E390E0089589E390E0089583EE90E0DF
:10362000089582EE90E0089586EE90E008959091DE
:10363000C80292FF06C0282F28712830F9F4877F2E
:10364000846093FF06C0282F28712831F1F4877E0B
:1036500084612091C90220FF06C0382F38713830AC
:10366000D9F4877F816021FF06C0282F2871283177
:10367000D1F4877E816194FD877E0895282F24717F
:103680002430F9F68B7F8860DCCF282F2471243119
:1036900001F78B7E8861DDCF382F3171313019F71A
:1036A0008E7F8860E0CF282F2171213121F78E7E17
:1036B0008861E1CF80E0089508950E94EB178111A1
:1036C00002C00E948D180E94F61780936C020E941F
:1036D000FE179093C9028093C8020E945C1B0E944F
:1036E000FA17682F70E090E080E00E943612609137
:1036F0000C0270910D0280910E0290910F020C94B9
:10370000250C089508950C94821BE82FF0E0EC52EC
:10371000FD4F80810895089580EA8A95F1F7089514
:1037200000C008950C948C1BF894E82FE295EF707C
:10373000F0E031A1282F2F7081E090E001C0880FC8
:103740002A95EAF7982F9095932391A392A1892B1C
:1037500082A37894089508950C94AB1BCF93DF93C4
:10376000C2E2D1E089918F3F11F00E94941B81E069
:10377000C832D807B9F7C8E2D1E089918F3F11F07C
:103780000E94941B81E0CD32D807B9F7DF91CF9129
:103790000895DF92EF92FF920F931F93CF93DF93E1
:1037A000D82EE92EF62E062F10E00E5D1E4FE801F2
:1037B00088818F3F09F458C0F894E82FE295EF70A4
:1037C000F0E021A18F70C1E0D0E0AE0102C0440F53
:1037D000551F8A95E2F7CA01922F982B91A392A1C7
:1037E0008095892382A378940E94901B0F2C01C09E
:1037F000CC0F0A94EAF76C2F7C2F7095A8E2B1E009
:10380000ED2DFE2D4DE251E0E12C9D9180819F3FF9
:1038100041F1292F22952F7030E0E90128A130E0F5
:103820009F7002C0359527959A95E2F720FD19C043
:10383000862B8083EE24E39431964A175B0729F7A1
:10384000F80180818F3F11F00E94941B6E2D8F2D07
:10385000DF91CF911F910F91FF90EF90DF900C942B
:10386000921B87238083E8CFDF91CF911F910F9127
:10387000FF90EF90DF900895CF93DF93CDB7DEB741
:1038800060970FB6F894DEBF0FBECDBF0E94AC1D8F
:1038900080913201811132C0FE01359686E0DF0150
:1038A0001D928A95E9F785E9898380EF8A8386E608
:1038B0008B8384E98C8385E38D83CE010196E8E2D6
:1038C000F1E09E01255F3F4FDC014D91CD01419319
:1038D000A217B307C9F726E0E5E6F1E0DE011B9683
:1038E00001900D922A95E1F7FC01A2E2B1E0CE0130
:1038F000419621912D93E817F907D9F7809132016C
:1039000095E0811190E09093DF0285E0891B809320
:10391000DE020E94AE1BEAECF2E0A4EDB2E01192EE
:103920001D9282E0E43DF807D1F785E00E94581D22
:103930000E94E80D60960FB6F894DEBF0FBECDBFB3
:10394000DF91CF910C94B61DFF920F931F93CF93ED
:10395000DF9300D000D00F92CDB7DEB70E948F1D4D
:10396000F82E6091DF02882309F442C08E010F5FB8
:103970001F4F85E0F80111928A95E9F7862F90E0B4
:10398000B8018C529D4F0E94C41DE091DE029E0141
:103990002A5F3F4FF0E0882311F1BF016C527D4F49
:1039A000D801F12CFB014191BF019D91491731F0E4
:1039B000AF0141505109FA019083F82EA217B307C5
:1039C00089F70E94EE0D8F2D0F900F900F900F90A2
:1039D0000F90DF91CF911F910F91FF900895EC52BE
:1039E000FD4FD80111921D92A217B307D9F7E9CF65
:1039F00070E06C527D4F8091DE0290E08C529D4FC2
:103A00000E94511E0E94AC1BDECFEF92FF920F93DB
:103A10001F93CF93DF93CDB7DEB72A970FB6F894F5
:103A2000DEBF0FBECDBF8E010F5F1F4F8AE0F801D2
:103A300011928A95E9F7F12C6F2DC8010E94C91BDC
:103A4000F394F6E0FF12F8CF4AE050E0B8018AECB8
:103A500092E00E940A317C0121E0892B09F420E0E8
:103A6000E114F10441F08AE0F801AAECB2E001901F
:103A70000D928A95E1F76091DF0270E06C527D4F04
:103A800045E08AEC92E00E94591D81E090E0EF2829
:103A900011F40E94A41C2A960FB6F894DEBF0FBE44
:103AA000CDBFDF91CF911F910F91FF90EF900895BF
:103AB0000895FF920F931F93CF93DF93F82E092F52
:103AC000162FD72FC42F222349F081E080936F0255
:103AD0000E94942990936E0280936D0280916F02F0
:103AE0008823A1F080916D0290916E020E94AC2912
:103AF000059760F0EF2DF02FA12FBD2FCE0FDF2FF8
:103B0000D11DEC17FD0741F410926F02DF91CF91A8
:103B10001F910F91FF90089581918D93F2CF809125
:103B20007202811107C00E94CF30882351F081E0DA
:103B30008093720281E090917202913009F080E0EE
:103B4000089582E0809372020E94CA30F3CF0E94EF
:103B50008F1D91E0892708950E94A71D809332014F
:103B60000E948F1D81110C94FA1D08950E948F1DD3
:103B7000811102C00C94FC1D089581E090917302A4
:103B80009A3008F080E008950F931F93CF93DF934E
:103B9000EC018B01809173028A30B8F4B801CE0138
:103BA0000E944F1EC82F811122C0809173028F3F47
:103BB000B9F40E94942990937102809370028C2F23
:103BC000DF91CF911F910F91089580917002909194
:103BD00071020E94AC29843F914000F7C0E0EFCF12
:103BE0008F5F809373028A3020F7C1E0E8CF109294
:103BF0007302E5CF0C9462260C946526EF92FF9237
:103C00000F931F93CF93DF937901C82F880FDD0B9C
:103C100041155105A9F08AE08C9FF0018D9FF00DB0
:103C20001124ED5CFE4F838194818C589D4F22813D
:103C300030E04217530708F49A01A9010E94173196
:103C4000CE010E946F27892B11F501151105E9F0AE
:103C50008AE08C9FF0018D9FF00D1124ED5CFE4FEA
:103C6000458150E00417150708F4A8018AE08C9FED
:103C7000F0018D9FF00D1124ED5CFE4F6681778180
:103C80006C587D4FC7010E94173181E001C080E070
:103C9000DF91CF911F910F91FF90EF9008950C94B9
:103CA000681F0C94841F0F931F93CF93DF9300D052
:103CB00000D0CDB7DEB760918B0270918C028091FD
:103CC0008D0290918E020E94BB2911E0643671052D
:103CD0008105910518F10E94F6286E5F7F4F8F4F86
:103CE0009F4F69837A838B839C8310E000E030E0F0
:103CF00020E044E050E0BE016F5F7F4F82E00E9411
:103D0000FE1D182F882351F00E94A02960938B027A
:103D100070938C0280938D0290938E02812F0F906E
:103D20000F900F900F90DF91CF911F910F910895F9
:103D3000AF92BF92CF92DF92EF92FF920F931F93B9
:103D4000CF93DF9300D000D000D0CDB7DEB77B019A
:103D5000C090CD01D090CE0101E010E09E012A5F1D
:103D60003F4F50E040E070E060E080E00E94FE1DC8
:103D7000182F882309F448C056018FEFA81AB80AF3
:103D800060918702709188028091890290918A02E5
:103D90000E94BB29643671058105910568F105E033
:103DA00010E09E012F5F3F4F50E040E070E060E088
:103DB00081E00E94FE1DD82E65E070E0C5010E94E2
:103DC000052311E09E81981310E01D2141F10E940E
:103DD000A029609387027093880280938902909350
:103DE0008A0285E0FE013196A2E8B2E001900D92D0
:103DF0008A95E1F711E013C065E070E0C5010E940B
:103E000005239E818913CBCF85E0F6013196DE0133
:103E1000119601900D928A95E1F71111E2CF85E09C
:103E2000E2E8F2E0D70101900D928A95E1F7812F47
:103E300026960FB6F894DEBF0FBECDBFDF91CF91AF
:103E40001F910F91FF90EF90DF90CF90BF90AF90B8
:103E50000895AF92BF92CF92DF92EF92FF920F93AD
:103E60001F93CF93DF937C015B016A010E94BD1D0C
:103E700001E010E0882311F00AE010E0C1E0D0E09A
:103E8000F894B501C701F60109957894811104C031
:103E900021960C171D075CF4DF91CF911F910F91B4
:103EA000FF90EF90DF90CF90BF90AF900895CC9FA0
:103EB0009001CD9F300D300D112490E080E045E35E
:103EC0004A95F1F70000019682179307C1F7D8CF02
:103ED0000F931F93CF93DF93EC018B0148E95EE1D1
:103EE0000E94291F882351F043E55EE1B801CE010D
:103EF000DF91CF911F910F910C94291F80E0DF91EA
:103F0000CF911F910F9108950F931F93CF93DF933C
:103F1000F894C091CD01D091CE01CE01019625E05B
:103F2000FB01DC0101900D922A95E1F765E070E05C
:103F30000E94052388837894F8946E817F81888518
:103F4000998500917E0210917F022091800230912C
:103F50008102601771078207930751F060937E0218
:103F600070937F0280938002909381020E94D928EF
:103F70007894DF91CF911F910F9108950E9411299C
:103F80000E94842B0E949D2B0E94AF2B0E94C1187F
:103F9000FBCF8091950280FF12C06091560185E0B1
:103FA000689FB00111247595679575956795603880
:103FB0007105A8F561157105A1F1862F089581FF9E
:103FC00009C06091560185E0689FB0011124759584
:103FD0006795EDCF6091560182FD0AC080919402F1
:103FE0008823D1F09091550160915601891728F0EE
:103FF00085E0689FB0011124DACF869FB0011124BB
:1040000085E0869F9001879F300D1124692F70E015
:10401000C9010E94F030CBCF65E070E0CECF8FE7D2
:10402000089581E008958091950280FF0CC0609111
:10403000520170E0759567957595679561157105E5
:1040400049F1862F089581FF06C06091520170E00A
:1040500075956795F3CF6091520182FD0BC09091E9
:1040600093029923A1F0609151018091520196171A
:1040700038F0682F70E06038710500F38FE708951D
:10408000899FC001112470E00E94F030F4CF61E0FC
:1040900070E0D7CF81E008958D3E31F40E94C91FB2
:1040A00081958093980208958E3E19F40E94C91F4D
:1040B000F8CF8F3E31F40E94C91F819580939702FB
:1040C0000895803F19F40E94C91FF8CF893F29F451
:1040D0000E9413208093990208958A3F21F40E9440
:1040E00013208195F7CF8B3F31F40E9413208195E7
:1040F00080939A0208958C3F19F40E941320F8CF00
:104100009FE0980F983070F4815F990B21E030E0C8
:1041100001C0220F8A95EAF780919602822B809344
:10412000960208958D3F31F48091950281608093CD
:10413000950208958E3F21F4809195028260F7CF19
:104140008F3FB9F7809195028460F1CF409197023B
:104150008D3E59F48091980287FF0DC0109298020D
:1041600041110BC01092940208C08E3E81F48091E0
:10417000980218169CF3442381F080919902909143
:104180009A02892B09F05AC01092930208958F3E2B
:1041900049F447FFF0CF1092970280919802811165
:1041A000ECCFE0CF803F19F41416ACF3E4CF90913C
:1041B0009902893F29F41916F4F610929902DBCF7F
:1041C0008A3F19F497FFD7CFF8CF90919A028B3F8F
:1041D00029F497FFD0CF10929A02CDCF8C3F19F4DB
:1041E0001916CCF3C8CF9FE0980F983090F4815FF8
:1041F000990B21E030E0B90102C0660F771F8A9564
:10420000E2F7CB01809590919602892380939602E4
:10421000B2CF8D3F31F4809195028E7F80939502CD
:10422000AACF8E3F21F4809195028D7FF7CF8F3FEB
:1042300009F0A1CF809195028B7FF0CF08950E9465
:1042400094299C019091970280919802982B21F0DB
:1042500030939202209391029091990280919A0258
:10426000982B21F03093900220938F0286E992E000
:104270000C944628EF92FF920F931F93CF93DF93F6
:1042800000D000D00F92CDB7DEB785E0E6E9F2E0CE
:10429000DE01119601900D928A95E1F7E090970268
:1042A000F09098020091990210919A021092970250
:1042B000109298021092990210929A028E2D8F29D4
:1042C00091F080919102909192020E94AC29AC01F0
:1042D00090919402992309F43EC08091570184176C
:1042E000150608F446C0802F812B91F080918F0233
:1042F000909190020E94AC29AC0190919302992375
:1043000009F476C0809153018417150608F47EC025
:104310008091970290919802892B90919902892B14
:1043200090919A02892B11F00E941F2185E0FE01D5
:104330003196A6E9B2E001900D928A95E1F70F90CF
:104340000F900F900F900F90DF91CF911F910F91D1
:10435000FF90EF900895209158018AE0289F9001E6
:1043600011242417350708F0BECF9F5F9093940265
:1043700002C09F3FD1F7EE2059F00E94C91F9FEF66
:104380001E140CF491E0899F802D112480939702D4
:10439000FF2059F00E94C91F9FEF1F140CF491E0F9
:1043A000899F802D112480939802309197023323A6
:1043B00009F499CF20919802222309F494CF45EB78
:1043C0003403C0011124992359F09093970245EBCF
:1043D000240390011124332339F03093980283CFC2
:1043E00081E080939702F3CF81E0809398027BCFA6
:1043F000209154018AE0289F900111242417350749
:1044000008F086CF9F5F9093930202C09F3FD1F741
:10441000002359F00E9413209FEF10160CF491E036
:10442000899F802D112480939902112359F00E94B5
:1044300013209FEF11160CF491E0899F802D112419
:1044400080939A0230919902332309F461CF20912D
:104450009A02222309F45CCF45EB3403C0011124F6
:10446000992359F09093990245EB2403900111246C
:10447000332339F030939A024BCF81E08093990235
:10448000F3CF81E080939A0243CF85E0E6E9F2E042
:10449000DF011D928A95E9F710929402109293021F
:1044A000109295020895EF92FF920F931F93CF936E
:1044B000DF93CDB7DEB72A970FB6F894DEBF0FBEF5
:1044C000CDBF6B837C838D83088719872A874E1124
:1044D00019C0552311F0F51215C08B81882319F0EE
:1044E000988598130FC08D81882319F09A859813A9
:1044F00009C09C81992321F081E02985291303C0FB
:1045000080E001C081E081702A960FB6F894DEBF8A
:104510000FBECDBFDF91CF911F910F91FF90EF9014
:104520000895EF92FF920F931F93E0909B02F090FB
:104530009C0200919D0210919E0220919F02409149
:10454000A0025091A1026091A2027091A3028091F9
:10455000A4020E945322882321F080EA92E00E9464
:1045600046281092A1021092A2021092A302109269
:10457000A40285E0E0EAF2E0ABE9B2E001900D923E
:104580008A95E1F71F910F91FF90EF900895CF93D7
:10459000DF9300D000D00F92CDB7DEB785E0E0EA20
:1045A000F2E0DE01119601900D928A95E1F72981E2
:1045B0003A814B815C816D8170E080E090E00F90EA
:1045C0000F900F900F900F90DF91CF910895CF93A0
:1045D000DF9300D000D00F92CDB7DEB749835A8366
:1045E0006B837C838D8385E0FE013196A0EAB2E087
:1045F00001900D928A95E1F70F900F900F900F9018
:104600000F90DF91CF9108950895FC01680F791FF5
:104610008FEF91E36E177F0709F4089521918227A8
:1046200028E030E087FF06C0880F89272150310934
:10463000C9F7F0CF880FFACF0F931F93CF93DF9373
:10464000C42FD22FFC0182818823C9F04093A70296
:104650000E9494299093A6028093A50280E28C0F79
:10466000883008F050C0C77081E001C0880FCA953B
:10467000EAF7DF91CF911F910F910C94680F109181
:10468000A702141335C08091A5029091A6020E9442
:10469000AC29883C910560F5C0E2CD0F1D17B9F03B
:1046A00080E2810F883040F4177081E001C0880FEC
:1046B0001A95EAF70E946F0FC83048F481E09D2FE9
:1046C000977001C0880F9A95EAF70E94680F802FB3
:1046D0000E94600FC830B8F4D77081E001C0880F25
:1046E000DA95EAF7DF91CF911F910F910C946F0F3C
:1046F00080E28C0F883038F4C77081E001C0880FE9
:10470000CA95EAF7EFCFDF91CF911F910F910895EE
:104710000F939C01CB01243F4CE5340759F1A8F4D9
:10472000293DFCE53F0701F12A3D4CE53407D1F175
:10473000283D3C4591F406E221EE41EE68ED7CE532
:104740000E941C2380E00F910895263FFCE53F075F
:10475000E9F0B0F0273F3C45F9F0FC018281882365
:1047600039F11092A702EFCF07E225EE45EE69ED91
:104770007CE5E6CF06E221EE40EE64EF7CE5E0CF9B
:1047800007E225EE44EE65EF7CE5DACF06E221EEA6
:1047900042EE66EF7CE5D4CF07E225EE46EE67EF0A
:1047A0007CE5CECF08E221E045EE6AED7CE5C8CF9E
:1047B00081E0C9CFCF93DF93EC01FB018281882395
:1047C00009F419C1C230FCE5DF07C0F1C6319CE530
:1047D000D90730F09E012B5F3C452930310570F53B
:1047E0000E94FE179093C9028093C802C031ECE585
:1047F000DE0709F4CFC008F05BC0C8308CE5D807ED
:1048000009F4B6C088F5C430ECE5DE0709F4A8C0A9
:10481000C0F4C2308CE5D80709F49CC08091C8026E
:104820008260C330DC4509F498C08091C802909141
:10483000C9020E940C180E94DD1180E0DF91CF9127
:1048400008958091C8028061C630ECE5DE0709F466
:1048500084C08091C8028860C730DC4508F47DC000
:104860008091C802806279C0CC308CE5D80709F409
:1048700089C070F48091C8028C60CA30ECE5DE0714
:1048800009F46BC008F478C08091C8028E7F65C0BF
:10489000CE308CE5D80709F479C08091C8028B7FAF
:1048A000CF30DC4508F459C08091C8028F7E55C0D6
:1048B000CC3FECE5DE0709F457C030F5C3318CE599
:1048C000D80709F46FC078F4C131ECE5DE0709F4CC
:1048D00065C0C231DC4509F0A8CF0E94DD1180918E
:1048E000C8028F773AC0C5318CE5D80709F462C099
:1048F00008F476C08091C9028160CB3FDC4509F0A5
:1049000094CF8093C90291CFC115FDE5DF0709F46B
:104910004DC088F48091C9028D7FCE3F9CE5D907B8
:1049200081F38091C9028E7FCF3FDC4550F38091A7
:10493000C9028360E6CFC230FDE5DF0709F459C044
:1049400008F444C080E0C330DD4509F06ECF0E941A
:104950008F186BCF8091C80281608093C80265CFA9
:104960008091C8028460F9CF8091C9028260C9CF6A
:104970008091C8028064F1CF0E94DD118091C8024D
:104980008068EBCF8091C8028D7FE7CF8091C8020D
:10499000877FE3CF8091C8028F7DDFCF8091C802EF
:1049A0008F7BDBCF8091C802837FD7CF8091C902F4
:1049B0008C7FA7CF8091C80282FB992790F921E0D4
:1049C000922790FB82F990FB83F9C7CF8091C902AF
:1049D000982F909591708E7F892B90FB81F991CFC4
:1049E0000E94DD119091C802892F97FB87F98058AA
:1049F000B4CF81E0ACCF81E021CFCF93DF93EB0147
:104A000086319C4511F50E943B179A81992399F0B4
:104A10008A7A91E009F490E09093A802811109C08C
:104A200089E20E94F5160E947E1780E0DF91CF9107
:104A3000089585E3F6CF8091A802811104C089E230
:104A40000E94FC16F0CF85E3FBCF81E0EFCF289AE0
:104A5000219A229A23982B9880E58CBD08959091F5
:104A600059019F3F09F071C08F3F09F46EC0611179
:104A700044C01092AA029091AA02423009F441C0A7
:104A8000433009F442C094604130E1F141E050E02C
:104A900042175307E0F19091AA024031510509F401
:104AA00052C0C0F54230510509F446C048305105A6
:104AB00009F446C09CB52091AA02922B9CBD90910E
:104AC000A902992319F09DB591609DBD809359016C
:104AD000E82FE295EF70F0E031A1282F2F7081E0F0
:104AE00090E001C0880F2A95EAF7382B31A392A1F4
:104AF0008095892382A381E0089590E29093AA0291
:104B0000BACF98609093AA02C1CF9C60FBCF440FAC
:104B1000551FBECF4034510549F04038510541F092
:104B20004032510539F621E02093A902926001C07C
:104B300093609093AA02BECF91E09093A902BACF5E
:104B400021E02093A9029160F4CF80E00895CF93F3
:104B5000DF938EBD0E949429EC010DB407FE05C0C1
:104B60008EB590E0DF91CF9108950E9494298C1B1F
:104B70009D0B8436910588F38EEF9FEFF3CFCF9393
:104B8000DF931EBC0E949429EC010DB407FE05C002
:104B90008EB590E0DF91CF9108950E9494298C1BEF
:104BA0009D0B8436910588F38EEF9FEFF3CF8091B4
:104BB00059018F3F29F1E82FE295EF70F0E041A114
:104BC0008F7021E030E0B90102C0660F771F8A952F
:104BD000E2F7CB01942F982B91A392A1892B82A36A
:104BE0008FEF809359018DB58E7F8DBD9CB58091DF
:104BF000AA02809589238CBD1092AA021092A90264
:104C000008958EE14A9B02C08150E1F74A9BFECF96
:104C100008955A9880E28A95F1F75A9A0895FC010E
:104C20003BE03A95F1F798E020E080E031E040E1A8
:104C30004A95F1F7880F4A9B02C08160232742E022
:104C40004A95F1F7000040E14A95F1F7915079F764
:104C500090E19A95F1F799B132E03A95F1F70000B9
:104C600040E14A95F1F792FB992790F9922720812C
:104C7000920F90830895EF92FF920F931F93CF931B
:104C8000DF930F92CDB7DEB719828C017C01E60E5F
:104C9000F11C0E151F0561F481E09981911180E0EE
:104CA0000F90DF91CF911F910F91FF90EF9008959A
:104CB0000E940126CE0101960E940F26F8018193E1
:104CC0008F01E7CF529A5A9A089552985A9AEA9ABF
:104CD000E9E6F0E080818F7C808308956150770B56
:104CE00091E001C0990F6A95EAF720E031E0911157
:104CF00008C0222391F05A9A80E28A95F1F75A98D7
:104D00000895492F482339F05A9A232740E24A95BB
:104D1000F1F79695ECCF5A98F9CF5A98EDCFFF92CC
:104D20000F931F93CF93DF93EC018C01060F111D9E
:104D3000C017D10731F4DF91CF911F910F91FF90F0
:104D40000895F9900E94092668E08F2D0E946E2632
:104D5000EFCF1F920F920FB60F921124EF92FF9296
:104D60000F931F932F933F934F935F936F937F9373
:104D70008F939F93AF93BF93EF93FF93CF93DF9363
:104D80000F92CDB7DEB719820E940126CE0101969F
:104D90000E940F26A82FA695A695A695282F2295A6
:104DA00025709A2F9570290F922F9370269526952E
:104DB000920F982797708981982B09F075C0A430BD
:104DC00008F072C080E18A95F1F75A9A529AB2E0DF
:104DD000BA95F1F700C05A98EA2EF12CEAE0AE9F9E
:104DE000D0011124AD5CBE4F1896ED91FC9119973E
:104DF0003097B1F06091CD017091CE0116962D9152
:104E00003C911797260F371F13968D919C911497FD
:104E1000680F791F15964C91159712968C910995EC
:104E20008AE08E9DF0018F9DF00D1124ED5CFE4F08
:104E30006581662351F02091CD013091CE018681AC
:104E40009781820F931F0E948F260E940926F0E10E
:104E5000FA95F1F75A9852985A9A80E18A95F1F7A3
:104E60008AE08E9D80018F9D100D11240D5C1E4FD8
:104E7000D80112966C911297662371F12091CD01A1
:104E80003091CE0113968D919C91820F931F0E94B9
:104E90003B26D801ED91FC91882311F088E001C0F8
:104EA00082E080830E9401260F90DF91CF91FF91D5
:104EB000EF91BF91AF919F918F917F916F915F9192
:104EC0004F913F912F911F910F91FF90EF900F9075
:104ED0000FBE0F901F901895ED91FC91DFCF0F93AF
:104EE0001F93CF93DF93EC0104970CF0A9C08AE0E5
:104EF0008C9FF0018D9FF00D1124ED5CFE4F8081A1
:104F00009181892B09F49CC0F894529A5A9885E0B3
:104F10008A95F1F700008C2F869585709C2F9570EF
:104F2000890F982F937086958695890F8E0193E04F
:104F3000000F111F9A95E1F7082B0E94092600C067
:104F400068E0802F0E946E26A0E1AA95F1F75298A2
:104F50005A9A4A9B27C087E090E04A9925C08AE088
:104F60008C9F80018D9F100D11240D5C1E4FF80148
:104F700065816623A1F12091CD013091CE0186811A
:104F80009781820F931F0E943B26811128C0529A5D
:104F90005A9AD801ED91FC9182E08083789482E066
:104FA00090E016C000C0D5CF0197B9F4529A5A9A32
:104FB0008AE08C9FF0018D9FF00D1124ED5CFE4F77
:104FC0000190F081E02D81E08083789481E090E091
:104FD000DF91CF911F910F91089500C0BECF0E9425
:104FE0000126B0E2BA95F1F75A98529AE0E1EA95B3
:104FF000F1F78AE08C9FF0018D9FF00D1124ED5C9C
:10500000FE4F6281662351F02091CD013091CE0197
:1050100083819481820F931F0E948F260E9409260C
:105020008AE08C9FF0018D9FF00D1124ED5CFE4F06
:105030000190F081E02D1082789490E080E0C8CF5C
:1050400084E090E0C5CF9093B1028093B0020895C0
:105050000E948F1D811103C08091AB020895E091E1
:10506000B002F091B102309721F00190F081E02D73
:10507000099480E00895E091B002F091B102309778
:1050800021F00280F381E02D09940895E091B002AF
:10509000F091B102309721F00480F581E02D099460
:1050A00008952091AE023091AF022817390771F0B0
:1050B0009093AF028093AE02E091B002F091B10202
:1050C000309721F00680F781E02D09940895209112
:1050D000AC023091AD022817390771F09093AD0200
:1050E0008093AC02E091B002F091B102309721F0D0
:1050F0000084F185E02D099408959C012E5F3F4FB7
:10510000AC01485F5F4F80E02417350709F408952C
:10511000F90191919F019923B9F38F5FF5CF662330
:1051200049F0FC01329608962191261729F0E817DC
:10513000F907D1F780E0089581E008959C01FC0112
:1051400032969FEF80E04191461751F09F3F19F44E
:10515000411101C0982F8F5F8630A9F79F3F09F456
:105160000895290F311D97FD3A95F901628308953D
:10517000FC01329608962191261303C0DF01119796
:105180001C92E817F907B9F708950C949E280C941F
:10519000B828029626E0FC0111922A95E9F70895B5
:1051A0001092E1021092E2021092E3021092E402E5
:1051B0000895CF92DF92EF92FF926B017C010E94E3
:1051C0008F1D81110EC00E94A029C61AD70AE80AB5
:1051D000F90AC092E102D092E202E092E302F09278
:1051E000E402FF90EF90DF90CF9008950F931F930C
:1051F0000E948F1D882321F01F910F910C94A029EC
:105200000E94A0290091E1021091E2022091E302A4
:105210003091E402600F711F821F931F1F910F9145
:1052200008950895089508950C9413298091ED022E
:10523000843049F10E94142980E00E945A0E109295
:10524000B20288E190E020E40FB6F894A89580932C
:1052500060000FBE2093600083B7817F846083BFAE
:1052600083B7816083BF7894889583B78E7F83BF2F
:105270000FB6F894A89580916000886180936000D3
:10528000109260000FBE08950895CF930E941229D6
:105290000E94051D0E944429C0E08C2F0E94851B9E
:1052A000811105C0CF5FCA30C1F7CF91089581E069
:1052B000FCCF08950C9459290E94DD110E942828E2
:1052C0000E945A0E0C945A291F921FB61F92112445
:1052D0008F939F93AF93BF938091B202811113C0BC
:1052E0008091E5029091E602A091E702B091E80278
:1052F0004196A11DB11D8093E5029093E602A09313
:10530000E702B093E802BF91AF919F918F911F90F8
:105310001FBE1F90189582E084BD93E095BD9AEF63
:1053200097BD80936E0008952FB7F8948091E502A1
:105330009091E602A091E702B091E8022FBF089594
:105340002FB7F8946091E5027091E6028091E70230
:105350009091E8022FBF08959C014FB7F894809177
:10536000E5029091E602A091E702B091E8024FBFFA
:10537000821B930B0895CF92DF92EF92FF922FB78B
:10538000F894C090E502D090E602E090E702F09039
:10539000E8022FBFA7019601261B370B480B590BBC
:1053A000CA01B901FF90EF90DF90CF9008957894F3
:1053B0001F921FB61F9211248F939F93AF93BF9399
:1053C0008091E5029091E602A091E702B091E80297
:1053D0000196A11DB11D8093E5029093E602A09372
:1053E000E702B093E802BF91AF919F918F911F9018
:1053F0001FBE1F90189581E08093E00080E28093AB
:10540000D8001092C9008FE19EE40197F1F700C027
:10541000000087E090EBDC018093F6029093F702A6
:10542000A093F802B093F90288E19CE00FB6F894DB
:10543000A895809360000FBE90936000FFCF90937B
:10544000DF018093DE0108958091BE02089590915E
:10545000ED02943031F58093B3027093B5026093FE
:10546000B40283E08093E9008FEF9091E8008150CF
:1054700095FD06C095ED9A95F1F700008111F5CFE5
:105480008091E80085FF0DC050E040E063E070E0EF
:1054900083EB92E00E94392C8091E8008E77809314
:1054A000E8000895BC0184E00C94272ABC0183E045
:1054B0000C94272A9C0182E08093E9009FEF809161
:1054C000E800915085FD06C085ED8A95F1F7000052
:1054D0009111F5CF8091E80085FF0CC050E040E0CD
:1054E00065E070E0C9010E94392C8091E8008E7758
:1054F0008093E8000895CF93DF93EC0181E08093DF
:10550000E9008FEF9091E800815095FD06C095ED80
:105510009A95F1F700008111F5CF8091E80085FFA1
:1055200014C050E040E068E070E0CE010E94392CE9
:105530008091E8008E778093E80088E0FE01A6EB7A
:10554000B2E001900D928A95E1F7DF91CF91089535
:105550008091EC02811109C00E94C92D0E94262E63
:105560008091E20084608093E20008951092EC0242
:10557000089508950895089542E061EC81E00E9445
:10558000452D42E061EC82E00E94452D42E261EC53
:1055900083E00C94452D8091EF02833009F461C0C3
:1055A00030F48130D1F1823009F49DC008958A3001
:1055B00009F489C08B3009F46FC0893009F050C0FC
:1055C0008091EE02813209F04BC08091F2029091FD
:1055D000F302009719F0029709F042C08091E800A9
:1055E000877F8093E8008091E80082FF35C090912A
:1055F000F3008091F200029729F48091F1008B7FF3
:10560000813021F48091F1008093BE028091E80006
:105610008B778093E8000C94792D8091EE02813A8B
:10562000F9F48091E800877F8093E8008091F2028E
:105630009091F302892B61F468E086EB92E070E0D0
:105640000E94882C8091E8008B778093E800089571
:1056500060E090E080E0F3CF8091ED028111C3CF54
:1056600008958091EE02813AD9F78091F2029091EB
:10567000F302892BA9F78091E800877F8093E800E7
:105680008091E80080FFFCCF809164018093F1005D
:105690008091E8008E77BDCF8091EE02813201F7D4
:1056A0008091F2029091F302892BD1F68091E8006B
:1056B000877F8093E8000E94792D8091F00280938B
:1056C00064010C94DD118091EE02813249F68091E3
:1056D000E800877F8093E8000E94792D8091F10295
:1056E0008093BF0208958091EE02813A09F0B8CF0D
:1056F0008091E800877F8093E8008091E80080FF38
:10570000FCCF8091BF02C2CF84B7877F84BF0FB622
:10571000F894A89580916000886180936000109251
:1057200060000FBE80E890E00FB6F89480936100AF
:10573000909361000FBE0C94B3180E94C92D0E9473
:10574000262EE2EEF0E080818460808378940E94CF
:10575000AF300E94C5188AE591E00C94232880910F
:10576000ED02853031F48091ED02853021F00E9408
:105770005C290C94D1180E9416298091EB02882391
:1057800091F30E944529882371F30E94232C0E94E3
:10579000DD11E9CF0C94CC2B292F33272330310591
:1057A00021F168F42130310509F443C0223031057C
:1057B00009F444C090E080E030E020E026C02132CF
:1057C000310551F122323105A9F76330710590F7A7
:1057D000FB01EE0FFF1FEE52FE4F2081318161531E
:1057E0007E4FFB01808190E010C0992781309105A8
:1057F00081F0009729F00297E9F6EAE8F2E102C0A9
:10580000E6ECF2E1849190E09F01FA01318320837C
:105810000895E0EAF2E1F6CF6330710558F6660FBD
:10582000771FFB01E852FE4F2081318189E090E033
:10583000ECCF82E190E02EE133E1E7CF84E590E028
:105840002AEC32E1E2CF80E189BD82E189BD09B471
:1058500000FEFDCF8091D8008F7D8093D80080918D
:10586000E00082608093E0008091E00081FDFCCF49
:105870000895AF92BF92CF92DF92FF920F931F9342
:10588000CF93DF936C01EB018A010E94982DF82ED3
:10589000811123C00115110539F0F8018081918132
:1058A000C81BD90BC80ED91EB12CA12C2097A9F06A
:1058B0008091E80085FD22C08091E8008E7780937A
:1058C000E80001151105A1F0F80180819181A80E71
:1058D000B91EB182A08285E0F82E8F2DDF91CF9185
:1058E0001F910F91FF90DF90CF90BF90AF900895E0
:1058F0000E94982D8823D1F2F82EEFCFF6018191E6
:105900006F018093F1002197FFEFAF1ABF0ACECF4E
:10591000FC018091F4029091F50286179707A0F0A0
:105920006115710529F49091E8009E779093E80045
:1059300090E06115710551F4911108C08091E80063
:1059400082FF34C080E00895BC01F2CF8091ED0267
:105950008823C1F18530C1F18091E80083FD30C01A
:105960008091E80082FDEACF8091E80080FFE1CFDE
:105970008091F3002091F200382F6115710519F024
:105980002830310558F091E02830310509F090E0D9
:105990002091E8002E772093E800CBCF819180936F
:1059A000F100615071092F5F3F4FE7CF8091ED0209
:1059B000882341F0853041F08091E80083FFBECF1D
:1059C00081E0089582E0089583E00895FC018091CC
:1059D000F4029091F50286179707A0F06115710502
:1059E00029F48091E8008E778093E80090E06115BB
:1059F000710551F4911108C08091E80082FF35C013
:105A000080E00895BC01F2CF8091ED028823C9F1B6
:105A10008530C9F18091E80083FD31C08091E800B4
:105A200082FDEACF8091E80080FFE1CF8091F30012
:105A30002091F200382F6115710519F028303105D9
:105A400058F091E02830310509F090E08091E800AD
:105A50008E778093E800CBCF84918093F1003196CC
:105A6000615071092F5F3F4FE6CF8091ED0288238F
:105A700041F0853041F08091E80083FFBDCF81E0A7
:105A8000089582E0089583E00895982F973028F0D4
:105A90008F708093E90081E008959093E900242FAE
:105AA000762F50E0981731F07091EC002091ED00C6
:105AB0005091F00021FD02C09F5FE8CF3091EB00D4
:105AC0003E7F3093EB003091ED003D7F3093ED0051
:105AD0003091EB0031603093EB007093EC00209339
