:100000000C944A0A0C94910A0C94910A0C94FC26C4
:100010000C94910A0C94910A0C94910A0C94910AF4
:100020000C94910A0C94910A0C94972E0C946B2FBB
:100030000C94B7290C94910A0C94910A0C94910A8F
:100040000C94910A0C94910A0C94910A0C94910AC4
:100050000C94910A0C942A2A0C94910A0C94910AFB
:100060000C94910A0C94910A0C94910A0C94910AA4
:100070000C94910A0C94910A0C94910A0C94910A94
:100080000C94910A0C94910A0C94910A0C94910A84
:100090000C94910A0C94910A0C94910A0C94910A74
:1000A0000C94910A0C94910A0C94910A01048E9676
:1000B0006E773EFE7E5F1DB8F2664EFF5D19B0C2E0
:1000C0000469542AD62EBFDD19B0C3E529B1E02357
:1000D000A5A9B1C10082674C1A978D795120C70636
:1000E0008E7C7C7A764FFD5930E2460E9EBEDF1D37
:1000F0009991A0A5A1A9D022C6EF5C1B958990A2D9
:10010000A7CCFB5528B3E44AF76C3BF46A562EDEC5
:100110001F9DB8D3058892A6CE1EBEDF1D99B0E202
:1001200046EF5C07115D980B9D9497EE4E45336B3F
:1001300044C729562730C6A7D5F256DFB43862CB5C
:10014000A0B6E30F84062405656F7689B57741274D
:1001500082666582CCD5E620D52717C5F803237CB7
:100160005F64A51DC1D636CB4CD4DB66D78BB19965
:100170007E6F4C364006D6EBD7A2E4F495515A5424
:1001800096D55344D78CE0B94068D218E9DD9A235C
:100190009248EE7F43AFEA7738848C0A72AF69F8F1
:1001A000DDF12483A3F84ABFF59413DBBBD8B4B3C5
:1001B000A0FB4550603059123171A2D313E7FAE722
:1001C000CE0F63150B6B94BB378326059DFB4692C0
:1001D000FC0A15D10D7392D68C1B8CB8558ACEBDF6
:1001E000FE8EFCED0912839182513123FBB40C7613
:1001F000AD7CD9B44BB26714099C7F0C18BA3BD6BE
:100200008E142AE41B529F2B7DE1FB6A3302FAAC69
:100210005AF23E887EAED1F378E805D1E3DC21F6D0
:10022000E19ABD170ED9469B8803EAF666BE0E1BFF
:100230005049964097F1F1E480A66EE87734BF29E3
:100240004044C2FF4E98D39CA3322B76510409E759
:10025000A9D1A632B12353E247ABD6F5695C3E5F24
:10026000FAAE4520E5D244FF39326DFD27575CFDDB
:10027000F0DEC1B599E5F51C770175C56D5892F2B0
:10028000B247000126967A30FFB7F0EF77C18A5D5A
:10029000DCC0D129301E77387A94F1B87A7EEFA489
:1002A000D1AC314AF25D643DB2E2F00899FC70EEE7
:1002B00024A77EEE1E20697D44BF8742DF883B0C69
:1002C000DA42C904F94550FC838F116A72BC9995D2
:1002D000F0AC3DA73BCD1CE2887937115F39899599
:1002E0000A16847AF68AA428E4ED83803BB123A51C
:1002F0000310F466EABB0C0FC5EC6C69C5D324ABE4
:10030000D42AB799887608A0A8957CD8386DCD599D
:1003100002514BF1B52B50E3B6BDD072CF9EFD6EAE
:10032000BB44C8248A77188A1306EF977DFA81F0B8
:1003300031E6FA77ED3106315B548A9F3068DBE2B3
:1003400040F84E73FAAB748B105813DCD2E678D1B8
:10035000322E8A9F2C58064827C5A95E81478946B8
:1003600021910370A43E889CDA330ACEBC8B8ECFD9
:100370009FD3718043CF6BA95183763082C56A8544
:100380003911501A82DC1E1CD57DA9719933471989
:1003900097B35AB1DFEDA4F2E62684A2289A9EDF35
:1003A000A66AF4D6FC2E5B9D1A2A2768FBC183211E
:1003B0004B90E036DD5B314255A013F7D089537185
:1003C00099570929C5F321F8372F40F3D4AF160800
:1003D0003602FC77C58B049056B9C9679A99E80034
:1003E000D386FF972D08E9B7B391BCDF45C6ED0F63
:1003F0008C4C1EE65B6E3830E4AAE395DEB9E49AD5
:10040000F5B2559A879BF66AB2F2779A31F47A314F
:10041000D11D04C07C32A29E9AF562F8278DBF518F
:10042000FFD3DF64373F2A6F763A7D77069E777F6A
:100430005EEB3251F916669A09F3B008A47096463D
:1004400030FFDA4FE91BED8DF8741F3192B373174B
:1004500036DB9130D688556B3477877AE7EE06C65F
:100460001C8C190C4846235E9C075CBFB47ED64F9B
:10047000749CE2C5508BC58B159060625729D013D0
:1004800043A18088910044C74D1986CC2F2A755A04
:10049000FCEB972A70E378D891B04F9907A395EABF
:1004A0002421D5DE512093270A3073A8FF8A97E9CB
:1004B000A76A8E0DE8F0DFECEAB46C1D392A622DD4
:1004C0003D5A8B65F890052E7E912C78EF8E7AC17F
:1004D0002FAC78EEAF2845064C26AF3BA2DBA393AA
:1004E00006B53CA5D8EE8FAF25CC3F856848A962FC
:1004F000CC978F7F2AEAE0150AAD6207BD45F84127
:10050000D836CB4CDB6EE63AE7DA15E9291E121035
:10051000A0142C0E3DF4BF394192750B257BA3CE60
:10052000399C1564C8FA3DEF7327FE262ECEDA6E8D
:10053000FD718EDDFE76EEDC125C02C53A4E4E4F4A
:10054000BFCA4015C76E8D41F110E04F7E977F1CEA
:10055000AE478E6BB12531B073C71B9779F980D345
:1005600066223007741EE4D08021D6EE6B6C4FBF3C
:10057000F5B7D909872FA914BE27D9725001D41312
:1005800073A6A751027525E1B345347DA88EEBF320
:100590001649CB4F8CA1B9368539755D0800AEEB95
:1005A000F6EAD7133A215A5F3084522695C914F2DD
:1005B00057556BB110C2E1BD3B51C0B7554C7112DC
:1005C00026C70DF951A43802057FB8F1724BBF71EF
:1005D0008914F37738D97124F30011A1D8D469278D
:1005E000083735C9119D901C0EE71CFF2D1EE8929F
:1005F000E11810957CE080F4964321F97521643868
:10060000DD9F1E9516DA561D4F9A53B2E2E418CBC1
:100610006B1A65EB56C63BE5FED8263F3A84597205
:1006200066A2F375FFFB60B322AD3F2D6BF9EBEAD9
:10063000057CD88F6D2C989E2B93F15E46F08749F0
:10064000297368D77FF9F0E57DDB1D7519F3C45870
:100650009B1788A892E0BEBD8B1D8D9F5676ADAFCF
:1006600029E2D9D552F6B55635573AC8E15643195D
:1006700094D3049B6D35D80B5F4D198EECFA6491C1
:100680000A72202BBC1A4AFE8BFDBBED1B23EAAD80
:100690007282A1299971BDF095C103DD7BC2B23C84
:1006A0002854D368A472C86696E0D1D87FF8D126C2
:1006B0002BF7ADBA55CA15B932C3E588978E5CFBE6
:1006C00092258BBFA245557AA76F8B575BCF0ECB78
:1006D0001DFB208277A88CCC16CE1DFADECC0B62D7
:1006E000FECCE1B7F0C381647340A0C24D8911759F
:1006F0003355338DE84AFDEA6E300BD7312CDE4797
:10070000E3BFF85542E27F59E517EF99346991B19B
:10071000238E20872DA8FED58AF3843AF037E4098A
:100720000054EE674993E48170E3904DEFFE41B7CA
:10073000997BC183BA62126F7DDE6BAFDA16F95511
:1007400051EEA60C2B02A3FD8DFB3017E46FDF36B4
:1007500071C4CA872548B047ECEAB4BFA54D9B9F3A
:100760000293C4E3E4E8422D6881150AEB845BD66A
:10077000A874FB7D1DCB2CDA462A7662CEBC5C9E2B
:100780008BE7CFBE78F57CEBB33A9CAA6FCC72D1E5
:1007900059F21123D63F48D1B7CEB0BFCBEA80DEA5
:1007A00057D45E972F75D1508E802C6679BF724BCF
:1007B000BD8A816CD3E101DCD21526C536DA2C1A4C
:1007C000C02794EDB79B850B5E8097C5EC4FEC88F6
:1007D0005D50073547DC0B3B3DDD60AFA85D8138E0
:1007E00024255D5C15D1DEB3ABEC0569EF83ED57D5
:1007F00054B8646411163269DA9F2D7F36BB445AAF
:1008000034E87FBF03EB007F59682279CF736C2CEB
:1008100029A7A15F38A11DF02053E01A6314587175
:1008200010AA080C3E161A6022827FBAA443A0D0F8
:10083000AC1BD56B64B51493319E5350D05766EE04
:100840005A4FFB032A695876F183F74EBA8C420659
:10085000605D6DCE6088AEA4C3F103A54B98A1FF87
:1008600067E1ACA2B862D76FA031B4D277AF2110E4
:1008700006C69AFF1D09170E5FF1AA54344B458A2C
:100880008763A6DCF9243067C6B2D6613369EE50BF
:10089000615728E77EEEEC3A5A734EA88DE418EAC9
:1008A000EC4164C8E2E866B62DB6FB6A6C16B3DDAF
:1008B0004643B973006A71ED4E9D251AC33C4A95B3
:1008C000159935811402D6989BECD8233B8429AF27
:1008D0000C9983A69A344FFAE8D03C4BD0FBB6680B
:1008E000B89E8FCDF7602D7A22E57DAB651B95A76D
:1008F000A87FB677477B5F8B1272D0D491EFDE1959
:10090000503CA78BC4A9B323CB76E681F0C1048FFA
:10091000A3B8545B97AC19FF3F55272FE01D429BAE
:1009200057FC4B4E0FCE98A9435703BDE7C894DF41
:100930006E367332B4EF2E857A6EFC6C1882753584
:100940009007F3E49F3EDC68F3B5F31980920699B3
:10095000A2E86FFF2E7FAE42A45FFBD40E812BC3B3
:1009600004FF2BB3744E365B9C1500C6472BE88BF7
:100970003DF19C039A587F9B9CBF854979352E5643
:100980007B411439478326AA078998111B86E77390
:100990007AD87D786153E979F5368D449284F913DC
:1009A00050583BA46A3665498E3C0EF16FD284C420
:1009B0007E8E3F39AE7C84F163378E3CCC3E4481E1
:1009C00045F14BB9ED6B365DBB20601A0FA3AA55FC
:1009D000773AA9AE374DBAB8866BBC0850F6CCA4AE
:1009E000BD1D4072A586FAE210AE3D584B97F34309
:1009F00074A99EEB21B701A4869397EE2F4F3B86F7
:100A0000A1416F412690785C7F30384B3FAAECEDD6
:100A10005C6F0EAD4387FD9335E601EF412690995B
:100A20009EFB195BADD2918AE046AF65FA4F84C157
:100A3000A12DCF458BD38550557CF96788D44EE9DD
:100A4000D76B6154A1A4A6A2C2BF309C409F5FD7C0
:100A5000692B24825ED9D6A712541AF7559F765077
:100A6000A99584E66B6DB59654D6CDB3A19B46A7E8
:100A7000944DC494B498E3E1E234D533160754CDD1
:100A8000B77753DB4F4D469DE9D49C8A36B6B838CC
:100A9000266C0EFF9C1B438B80CCB93DDAC7F18AD4
:100AA000F26DB8D7742F7E1EB7D34AB4ACFC794828
:100AB0006CBC96B69446572DB0A3FC1EB952608507
:100AC0002D41D043011E1CD57DFCF3960DC7CB2ACA
:100AD000299A93DD882D375DAAFB4968A09C508632
:100AE0007F685657F9791839D4E001843361CAA573
:100AF000D2D6E4C98A4A23444EBCF0DC24A1A0C467
:100B0000E2073C10C4B5254B6563F480E7CF61B1C3
:100B1000718221872CF59100320CECA9B59A74856D
:100B2000E3368F764F9C6DCEBCAD0A4BED7604CB91
:100B3000C3B9339E019396697DC5A245799B045C38
:100B40008409ED8843C7AB931426A140B5CE4EBFB0
:100B50002A42853E2C3B54E8121F0E9759B2278932
:100B6000FAF2DF8E6859DC06BCB6850D0622ECB1C0
:100B7000CBE504E63DB3B04173083F3C588663EBD8
:100B800050EE1D2C3774A9D318A3476E9354AD0AA9
:100B90005DB82A555D78F6EEBE8E3C7669B940C2E6
:100BA00034EC2AB9ED7E20E48D0038C7E68F44A8E6
:100BB00086CEEB2AE990F14CDF32FB731B6D921E5F
:100BC00095FEB4DB65DF4D23548948BF4A2E70D6AD
:100BD000D762B43329B13A334C236DA676A521638D
:100BE00048E6905DED90950B7A84BEB80D5E630C7F
:100BF00062264C145AB3AC23A474A76F333005603B
:100C00000142A028B7EE1938F164808243E1412700
:100C10001F1F90547AD5232ED13DCB28BA587FDCA4
:100C20007C9124E92851836EC5562142EDA05622BD
:100C3000A140806BA8F794CA136B0C39D9FDE9F376
:100C40006FA69EFC708AB3BC593C1E1D6CF97CAF2C
:100C5000F9887195EB5700BD9F8C4FE12483C52225
:100C6000EAFDD30CE217187C6A4CDE77B4539B4C38
:100C700081CD2360AA0E25739C02793230DF74DFA8
:100C80007519F4A5145CF77AA8A591847C60030615
:100C90003BCD50B6279CFEB1DDCCD3B05924B2CAAF
:100CA000E21C81229D078F8EB9BE4EFAFC3965BACF
:100CB000BF9D12375E977EF389F55DF5E3098C627F
:100CC000B5209D0C538A681BD28F75175DD4E5DA69
:100CD000756219146A262DEBF8AF37F06CA455B184
:100CE000BCE233C09ACAB011494F689B3B6B3CCC05
:100CF00013F6C785616842AEBBDDCD4516291DEAF6
:100D0000DBC803943CEE4F8211C3EC28BD970599D4
:100D1000DED7BB5E221FD4EB64D992D985B76A05B2
:100D20006AE42441F1CDF0D83FF89E0ECD0B7A70E5
:100D30006B5A750A6A3388EC17750870102F24CF28
:100D4000C4E942006194CA1F3A7606FAD24881F09B
:100D500077600345D961F4A46F3DD930C3046B5467
:100D60002AB7EC3BF44BF5685226CEFF5D1991A0F3
:100D7000A3A5A9B1E023C40A774DF95120A3A5A9E1
:100D8000B1C10082868E7F5D1991A0A3C4EB540B84
:100D9000756852078C9A978D79706246EF5C1B9547
:100DA000897141E121A1A1A1C002674C1AB6CFFD12
:100DB000785324ABB5C9F16023A5C812876D5813C9
:100DC000858892876D5832C70C9A97ACDA36EE5EFA
:100DD0003EDF1DB8F2662FBDF87247ED58138588C7
:100DE00092878C7B550990A2C6EF3DF85324ABD473
:100DF0002AB7EC5A36EE5E3EDF3CFA764FFD5930AC
:100E0000E246EF3DF853056931C10082868E7F5D71
:100E100019B0E227CCFB744B148B948B756833C5E7
:100E20000892878C9AB6CF1CBAD70D98B2E62FDC01
:100E30001B9589716023C40A968F9CBAF66E3FFC9D
:100E40005B15A8D226AFBDF872662FDC1BB4CB149D
:100E50008B94AAB7CDF951018082866F3DD930E2DB
:100E600027CCFB744B14AAB7CDF97043046B35C97A
:100E7000F16023A5C8F3450892876D5832E62FBD6F
:100E8000F872664E1EBEFE7E7E7E5F1D9991A0A307
:100E9000C40A774D1893A4ABD40B754910A2C6EFC2
:100EA0003DF85324ABB5E833E44A16AEDE1FBCDB95
:100EB00015A8B3C5087345E931C1E121A1A1A1C0BD
:100EC00002866F5C3AD70D9893A4CA16AEDE1F9DBA
:100ED00099B0E246EF3DF872470C9AB6CFFD591132
:100EE000A0A3A5C8F3450892876D39F043048A96FC
:100EF000AEDE3EDF1D9991A0C2066F3DF872470C31
:100F00009A978D989385887345E931E023A5A9D0F8
:100F100003848A96AEDE1FBCDB15A8D226CEFF5D09
:100F20001991818082672DD813A4ABD40B94AAB7F2
:100F3000CDF95120A3A5C8F345E95022C6EF5C3A8C
:100F4000D70D9893858873644AF74DF95120A3C44F
:100F50000A96AEDE3EFE7E7E7E5F3CFA764FFD78E0
:100F600072662FBDD930C3E54812878C7B5528D2D5
:100F7000078C9A97ACDA178D795120A3C4EB540BE8
:100F8000948B94AAD62EBFFC5B15A8D226AFDC1B8F
:100F9000B4EA37EC3BF46A37CD1893856931C1E187
:100FA00040E325C812878C9AB6CFFD5911A0C2061E
:100FB0008E7F5D38F2470C7B746A37EC5A36EE3F11
:100FC000FC7A764F1C9B95897141006344EB542A4F
:100FD000D60F9CBAD70D9893856931C10082868E51
:100FE0009EBEDF3CFA572CDA36EE3FFC5B1589716A
:100FF000410082868E7F5D38F247ED5813A4CAF710
:101000004DF95101806344EB542AD62EBFDD19916E
:10101000A0A3A5A9B1E042068E7F5D1991A0A3C44B
:101020000A968F7D7872470C7B746A562EDE1FBC41
:10103000FA570D7951016121A1C0E325A9B1C1E1A0
:101040004002674C1A978D9893A4ABD42AD60F9C74
:101050009BB4CB14AAB7CDF95120A3C4EB35C9F189
:101060006042068E7F7C7A766E3FFC7A766E5E3EBC
:10107000FE7E5F3CDB15897141E121C0E344EB5406
:101080002AB7CDF9706227ADD832C70C7B744B14E8
:10109000AAB7EC3BD528D2076D39D120C2E74C1A4C
:1010A000978D98B2C70C5928F39B14001A000800BA
:1010B0001500170004681664076209610A001D44E0
:1010C0001B000600190005002B4200002A4328419E
:1010D0000000130012000C0018001C0033680F649D
:1010E0000E620D610B00384437003600100011000D
:1010F000294600002C4500000000005C00000000B4
:1011000000000000E300E200E100E0000000F30066
:10111000E600F200F1000000000000000000000006
:1011200000007A004C024901490279004F00520048
:101130005100500039004D004B004E004A0049005C
:10114000280000004C004C000000005C0000000083
:1011500000000000E300E200E100E0000000000009
:10116000E600000000000000000000000000000099
:1011700000007A004C02490149027900F000ED00BC
:10118000EE00EF000000FB00F900FA00FB00000099
:10119000F1000000F300F2000000005C000000001D
:1011A00000000000E300E200E100E00000000000B9
:1011B000E600000000000000000000000000000049
:1011C0000000CA5CC85CC65CC45CC35CAB00A90020
:1011D000AA00AC00000000000000000000000000B9
:1011E000AD000000AE00A8000000645D49024901A6
:1011F0004C027A00635D655DE100E000010079006A
:10120000490249014C027A00F3000000F200F100AB
:1012100000007A004C02490149027900F000ED001B
:10122000EE00EF000000FB00F900FA00FB000000F8
:10123000F1000000F300F20000002F002400250060
:101240002600300033002100220023002E0035004C
:101250001E001F00200031002D0000003700270075
:101260000000005C0000000000000000E300E2005D
:10127000E100E00000000000E600000000000000C7
:10128000000000000000000000002F0224022502E0
:101290002602300233022102220223022E023502EC
:1012A0001E021F02200231022D0200002602270228
:1012B0000000005C0000000000000000E300E2000D
:1012C000E100E00000000000E60000000000000077
:1012D0000000000000000000000045004000410048
:1012E0004200460044003D003E003F0047004300EE
:1012F0003A003B003C0048002B00000065002C0039
:101300000000005C0000000000000000E300E200BC
:10131000E000E10000000000E60000000000000026
:10132000000000000000000000001E0343006800F1
:10133000610072007900620064006900730020009F
:101340004E0061006E006F00000024034200610047
:101350007300740061007200640020004B0065009F
:10136000790062006F006100720064007300000089
:101370000403090409025400030100A0FA0904004F
:1013800000010301010009211101000122400007B1
:1013900005810308000A0904010001030102000994
:1013A00021110100012247000705820308000A09F4
:1013B0000402000103000000092111010001223292
:1013C000000705830320000A120100020000000844
:1013D000F8A8321801000102000105010980A101ED
:1013E000850319012AB700150126B700950175106C
:1013F0008100C0050C0901A101850419012AA00280
:10140000150126A002950175108100C00501090291
:10141000A1010901A10005091901290815002501EB
:101420009508750181020501093009311581257F73
:1014300095027508810609381581257F9501750883
:101440008106050C0A38021581257F9501750881F2
:1014500006C0C005010906A101050719E029E71525
:101460000025019508750181029501750881010526
:1014700007190029FF150026FF0095067508810051
:101480000508190129059505750191029501750356
:101490009101C00011241FBECFEFDAE0DEBFCDBF47
:1014A00004B603FE27C08091DB029091DC02A0917C
:1014B000DD02B091DE028730904BA740B04BD1F4F3
:1014C0001092DB021092DC021092DD021092DE021A
:1014D00014BE84B7877F84BF0FB6F894A895809117
:1014E0006000886180936000109260000FBEE0E0B1
:1014F000F8E3099511E0A0E0B1E0E2ECF3E602C008
:1015000005900D92AA3DB107D9F722E0AAEDB1E00E
:1015100001C01D92AB3DB207E1F70E9411200C946F
:10152000BB310C94000030E020E043E060E080E359
:101530000E94822595E09A95F1F70000089585E0D4
:101540008A95F1F700000C942A26CF93DF93C82FD9
:10155000D62F803511F01092DC010E94930A8C2F57
:1015600080680E94FA258D2F0E94FA25EC018AE6F8
:101570008A95F1F700C08FE891E00197F1F700C07C
:1015800000000E942A26CE01DF91CF910895CF93CB
:10159000C82F0E94930A8C2F8F770E94FA250E94F1
:1015A0001226C82F85E08A95F1F7000085E68A9516
:1015B000F1F700000E942A268C2FCF910895CF9337
:1015C000DF93EC010E94930ACE0164E670E00E9472
:1015D0002F31615071096837710510F067E770E0CD
:1015E0008FE00E94A50ADF91CF910C942A26CF9319
:1015F000DF936DE183E10E94A50A8FE39CE90197E7
:10160000F1F700C0000068E183E10E94A50A0E9492
:10161000930A82EE0E94FA2590E59A95F1F7CCEABA
:10162000D0E080E1CA3AD807C1F4EFE1F3E03197A6
:10163000F1F700C000008AE20E94C70A60E080E182
:101640000E94A50A0E942A268FE39CE90197F1F7E0
:1016500000C00000DF91CF910895FE0184910E94A7
:10166000FA25F0E5FA95F1F72196DBCFCF93DF93DA
:1016700080E00E94C70AD82F8FE30E94C70AC82FB4
:101680008AE20E94C70AD23459F4CD3B49F491E072
:10169000843009F090E0892F8170DF91CF91089517
:1016A00080E0FACF209A0E947A251092DC010E94F5
:1016B0002A260E94930A0E942A2666EB8BE30E9448
:1016C000A50A2FEF85EA9EE0215080409040E1F787
:1016D00000C000000E94930A25ED2A95F1F7000052
:1016E0000E949F0A85ED8A95F1F700006AE58AE37A
:1016F0000E94A50A9FEF20E782E0915020408040A1
:10170000E1F700C0000082E00E94C70A83E00E9467
:10171000C70A84E00E94C70A85E00E94C70A86E0E3
:101720000E94C70A0E94F70A0E949F0A8FE39CE961
:101730000197F1F700C0000080E496E00E94DF0A04
:101740008FE99FE00197F1F700C0000060E080E1C1
:101750000E94A50A67EE81E10E94A50A0E94360B4D
:10176000289808959F92AF92BF92CF92DF92EF9206
:10177000FF920F931F93CF93DF93EC018091DC01D5
:10178000811107C060E080E50E94A50A81E0809396
:10179000DC010E94930A80E50E94FA258AEB8A9573
:1017A000F1F700C00E941226F82E80E00E94FA2570
:1017B0000E9412266C010E941226B82E0E94122648
:1017C0008C010E941226E82E0E942A269F2C991C2A
:1017D0009924991CAA24A394F3FCA12CDB28D1946E
:1017E000C194D1081E291195019511090E942A263C
:1017F0008F2D877011F01092DC01F8829982AA82F5
:10180000DC82CB82BD821F830E83E886CE01DF910E
:10181000CF911F910F91FF90EF90DF90CF90BF90ED
:10182000AF909F900895FC016183428308950F93C8
:101830001F93CF93DF93CDB7DEB729970FB6F894F8
:10184000DEBF0FBECDBF8C01CE0101960E94B20B50
:101850008B81882369F18A81882351F14F815885D2
:101860004038510514F04FE750E041388FEF5807EA
:1018700014F441E85FEF6C817D816038710514F0EC
:101880006FE770E061388FEF780714F461E87FEF5D
:10189000719561957109C80129960FB6F894DEBF5C
:1018A0000FBECDBFDF91CF911F910F910C94130C00
:1018B00029960FB6F894DEBF0FBECDBFDF91CF9152
:1018C0001F910F9108958091DD01882359F0E091D7
:1018D000AA02F0E0EE0FFF1FE050FF4F80819181E0
:1018E0000C94DF0AE091A902F0E0EE0FFF1FE85F21
:1018F000FE4FF4CFCF92DF92EF92FF920E94C3127D
:101900006B017C0144E00E94D6129091DD018917A1
:1019100031F081E098279093DD010E94630CC701AC
:10192000B601FF90EF90DF90CF900895EF92FF9275
:101930001F93CF93DF93EC017B010E94EF0D182FD3
:10194000882349F0C4368DE5D807E9F058F4C3364A
:10195000DD4509F441C0812FDF91CF911F91FF90A8
:10196000EF900895C5368DE5D80709F467C0C636EF
:10197000DD4589F78091DD0191E089278093DD01C4
:101980000E94630CE8CFF701D281DD2321F30E948E
:101990009017C82F0E94B6178C2B82729091AA02C2
:1019A0008823C1F091509093AA028091AA028430BA
:1019B00008F083E08093AA026091A9027091AA02C4
:1019C0008091AB029091AC020E9472180E94630C4D
:1019D0001D2FC1CF9F5FE7CFF701D281DD2309F42F
:1019E000BACF0E949017C82F0E94B6178C2B827214
:1019F0009091A902882301F191509093A9028091BE
:101A0000A9028C3008F08BE08093A9026091A902B2
:101A10007091AA028091AB029091AC020E94721860
:101A2000E091A902F0E0EE0FFF1FE85FFE4F80811A
:101A300091810E94DF0ACCCF9F5FDFCF8091DE01D2
:101A400091E089278093DE0181110CC0E091A90209
:101A5000F0E0EE0FFF1FE85FFE4F808191810E9452
:101A6000DF0A79CF84E690E0FACFEDEAF2E0118266
:101A70001082138212820C9403190E94520BE0917F
:101A8000A902F0E0EE0FFF1FE85FFE4F8081918119
:101A90000C94DF0ACF93DF9300D000D00F92CDB724
:101AA000DEB70E941A2329833A834B835C836D83BC
:101AB000CE0101960E94170C8091DE01882309F463
:101AC0004FC08A812091AD023091AE02280F311DA6
:101AD00087FD3A953093AE022093AD024B81809101
:101AE000AF029091B002840F911D47FD9A9590939B
:101AF000B0028093AF02AC01445F5F4F49315105A2
:101B0000A0F06CE070E00E944331660F771F6A3FDF
:101B10008FEF7807B4F16730710514F066E070E07C
:101B20006C831092B0021092AF02C9014E96CD970D
:101B3000A8F0C9016EE170E00E944331660F771F83
:101B4000613F8FEF7807FCF06031710514F06FE0B2
:101B500070E06D831092AE021092AD021A821B8269
:101B600049815A816B817C818D810E943A230E9438
:101B7000E4220F900F900F900F900F90DF91CF9174
:101B800008956AEFCDCF61EFE4CFE9EAF2E0108289
:101B9000118280910801909109010E94DF0A6091F1
:101BA000A9027091AA028091AB029091AC020E94AE
:101BB00072180C947E180E946E186093A90270939C
:101BC000AA028093AB029093AC026C3010F4743094
:101BD00010F00E94C50D0C94D61B81E0089581E0A1
:101BE000089508950C94F10D1F93CF93DF9300D0C7
:101BF00000D00F92CDB7DEB749835A836B83309103
:101C0000DF0189819A8131111DC06623B9F0222339
:101C1000A9F00E94F313182F682F89819A810E94DE
:101C20009C1369817A81812F0F900F900F900F90F4
:101C30000F90DF91CF911F910C94BD1A0E94CA138F
:101C4000182FEFCF0E94F31369817A81EDCFFC0149
:101C5000262F408151816281738184810C94F40D1F
:101C600081E00895CF93DF93EC0160E00E94270E9E
:101C7000BE01DF91CF910C94F20D0E94B21B0E9425
:101C8000AE0E0C94DB0D0C94D81B08950E943212FA
:101C90000E94450E2FEF84E39CE02150804090404D
:101CA000E1F700C000000C944E2A0F931F93CF93CE
:101CB000DF938C0161E00E94270EEC01B8010E94C5
:101CC000960C8823A9F1B801CE010E94DB2388235A
:101CD00079F1B801CE010E942D24882349F1B80181
:101CE000CE010E945025882319F1F80182818823B2
:101CF00061F0CB35FDE5DF0721F170F4C115ECE5AE
:101D0000DE07A1F0CF3DDC45C9F0C801DF91CF91DE
:101D10001F910F910C94ED0DCC358DE5D807A1F0F6
:101D2000CD35DD4591F70E948117EFCF0E94460E19
:101D300080E0DF91CF911F910F9108950E94E218EA
:101D4000F7CF0E948A17E1CF0E948D17DECF08954A
:101D50000C94A70E81E008950C94AA0E0895CF93D9
:101D6000C82F0E94A80E8C2FCF910C94AC0ECF934D
:101D7000DF93CDB7DEB72B970FB6F894DEBF0FBE5B
:101D8000CDBF4F83588769877A878B8761110E94FF
:101D9000B0171E821D8285E0FE013796DE01119686
:101DA00001900D928A95E1F78C819D81892B89F4B0
:101DB00049815A816B817C818D819E810E94B01600
:101DC0002B960FB6F894DEBF0FBECDBFDF91CF913B
:101DD000089589819A8189238F3F51F3CE0101961D
:101DE0000E94300E8111E4CFEBCFFC018081918104
:101DF0000C9435140F931F93CF93DF9300D000D032
:101E00000F92CDB7DEB7082F162F0E941A233A8300
:101E10004B835C836D83002389F0212B422F5A81F1
:101E20006B817C818D810F900F900F900F900F90A0
:101E3000DF91CF911F910F910C943A23109521239C
:101E4000EDCFCF93C82F882309F447C08CEF8C0FB8
:101E5000813AA0F46C2F80912001909121010E9481
:101E6000E228882329F08C2F0E9451170E94D31753
:101E70008C2F0E944A17CF910C94D31780E28C0FBD
:101E8000883048F4C77081E001C0880FCA95EAF72E
:101E90000E949317F0CFEBE5EC0FE33040F4F0E055
:101EA000EB56FE4F808190E0CF910C94A428E8E59A
:101EB000EC0FE73150F4F0E0EE0FFF1FE959FE4F51
:101EC00080819181CF910C94BA28CD3E30F08C2F37
:101ED0000E949F20CF910C947221CF910895882366
:101EE00061F19CEF980F913A20F40E9451170C94E5
:101EF000D31790E2980F983050F4877091E001C0AA
:101F0000990F8A95EAF7892F0E949917F0CF9BE5E0
:101F1000980F933020F490E080E00C94A42898E58A
:101F2000980F973120F490E080E00C94BA288D3E11
:101F300020F00E94F9200C94722108951F93CF93F2
:101F4000DF93182FEB010E94210F209731F4812F8E
:101F5000DF91CF911F910C946F0F8FE99FE0019754
:101F6000F1F700C000002197F0CF70E060E0893306
:101F700011F460E570E00C949E0F882321F00E941C
:101F800093170C94D3170895882321F00E94991772
:101F90000C94D3170895BF92CF92DF92EF92FF92E5
:101FA0000F931F93CF93DF937C01D62FC72FFC0194
:101FB0001281058102950F700E946817D82E882320
:101FC000A1F0D12E112389F08C2F807F803429F04D
:101FD00080E28D0FD12C883040F082E00E942418DE
:101FE0000E94681791E0D82ED926CC2EC2949FE08B
:101FF000C922FBE0FC1598F1EC2DF0E0E354FE4C17
:102000000C9457310C2F0F70C07F11F00295007F98
:102010001123A9F0002359F080E28D0F883010F0D1
:10202000D11109C0802F0E9493170E94D3178D2FC2
:102030000E94210F14C0802F0E94A317F6CF8D2F6E
:102040000E946F0F002359F080E28D0F883010F04E
:10205000D1112BC0802F0E9499170E94D317EC2D0D
:10206000E850FF0B349720F40E947B280E94AF0EAB
:10207000DD2009F498C10E94641780FD94C1F70126
:1020800012820E945E170E940013C7010E94F41181
:102090000E945E17DF91CF911F910F91FF90EF90FB
:1020A000DF90CF90BF900C942113802F0E94A9172E
:1020B000D4CF2C2F2F70B22EC07FC03219F0B29423
:1020C00080EFB822DD2339F0D13019F1112361F10D
:1020D000002321F1ACCF112381F0011106C00E9431
:1020E000B6178B290E94BD0FBACF0130C1F70E94ED
:1020F000B6178B290E94BC17B2CF011106C00E94EF
:10210000C9178B2D0E94C40FAACF013009F4A7CFA5
:10211000F6CF112329F0063008F0A1CF8B2DE2CFA6
:10212000053008F09CCFEDCF002359F3D93349F4A3
:102130003FEF87EE93E0315080409040E1F700C0E0
:1021400000008D2F0E946F0F8ACF8C2F8695869569
:10215000837069F0813009F082CF8D2F9C2F9370AE
:10216000111102C090E080E00E94BA2878CF8D2F34
:102170009C2F9370111102C090E080E00E94A4286F
:102180006ECF8D2F112391F00E949F20ED2FE15FE4
:10219000FF0BE830F10568F461E070E001C0660F04
:1021A000EA95EAF7812F0E94FA0E59CF0E94F92092
:1021B000EDCF0E94722153CF8C2F837009F041C064
:1021C00011114DCF4D2F429546954770440F440F46
:1021D0000D2F0F7010E030E020E0042E04C0000F3F
:1021E000111F221F331F0A94D2F760E070E0CB0169
:1021F000D4FF0FC06FE070E080E090E004C0660F95
:10220000771F881F991F4A95D2F760957095809522
:102210009095C695C695C370602B712B822B932B1E
:10222000C23049F058F4C13019F00E949F1217CF04
:102230000E948D1214CF0E94B11211CF0E948B12F6
:102240000ECF8695112311F08C2F8170882309F40D
:1022500006CF4D2F429546954770440F440F0D2FE2
:102260000F7010E030E020E0042E04C0000F111FBA
:10227000221F331F0A94D2F760E070E0CB01D4FF35
:102280000FC06FE070E080E090E004C0660F771F41
:10229000881F991F4A95D2F7609570958095909503
:1022A000C695C695C370602B712B822B932BC230C1
:1022B00049F058F4C13019F00E947713D0CE0E9433
:1022C0006513CDCE0E948913CACE0E94C512C7CE17
:1022D000CF70112329F08C2F0E9400138D2F02CF75
:1022E0008D2F0E94C40F8C2F0E942113B8CED23F95
:1022F00089F160F4D03FC9F0D13F29F1112309F4ED
:1023000042C0011194CE8C2F8F7121C0D33F39F17F
:10231000D43FA1F7112369F1CF718C2F0E940013D4
:1023200063E08C2F0E9409189ACE112341F00530EA
:1023300008F095CE8C2F8F710E94441390CE0630FA
:1023400008F08DCEF7CF8C2F8F71112369F20E9488
:10235000001385CE8C2F8F711123C9F3C5CF1123A4
:1023600029F08C2F8F710E94EB1279CE0E94D1122E
:1023700076CE81E00E942418023008F470CE82E00C
:102380000E9424186CCE002359F0D93309F0D9CE1D
:10239000FFEF27EE33E0F15020403040E1F7CFCEA1
:1023A0008C2F8F71A1CFDF91CF911F910F91FF9053
:1023B000EF90DF90CF90BF9008950F931F93CF932E
:1023C000DF93EC01688179818A810E943F148C013E
:1023D0000E949B130E948A12B801CE01DF91CF9117
:1023E0001F910F910C94CB0FCF93DF93EC018B8156
:1023F0009C81892B29F08881998189238F3F59F409
:10240000DF91CF910895CE010E94DD11CE01DF91C1
:10241000CF910C94320ECE010E94550E8111F3CF54
:102420000E946817882361F38A81882349F382E038
:10243000DF91CF910C94241890E080E00E94A428B2
:1024400090E080E00E94BA280E94B0170E94B31763
:102450000E94D3170E9498220C9472210E94581750
:102460000C941C120E94A0170C942E12E92FE295D6
:10247000EF70E250EE3070F4F0E0E753FE4C0C9455
:102480005731803F19F020F4883E20F481E0089510
:10249000843FE1F380E00895883EC0F3813FD1F7A7
:1024A000F5CF93FB882780F90895FC018081918105
:1024B0000E9435140C943612CF93DF9300D000D0D5
:1024C0000F92CDB7DEB70F900F900F900F900F9037
:1024D000DF91CF910895CF93DF9300D000D000D04B
:1024E000CDB7DEB726960FB6F894DEBF0FBECDBFD0
:1024F000DF91CF91089508950C947B120E947C1275
:102500006093FD017093FE018093FF0190930002A0
:102510000C941C1208950C947E120F931F9300913B
:10252000FD011091FE012091FF0130910002602B0E
:10253000712B822B932B1F910F910C947E120F9372
:102540001F930091FD011091FE012091FF01309138
:10255000000260237123822393231F910F910C9417
:102560007E120F931F930091FD011091FE012091A7
:10257000FF013091000260277127822793271F9166
:102580000F910C947E120C947B120E947A0C609333
:10259000F9017093FA018093FB019093FC010C9474
:1025A0001C1260E070E0CB010C94C512611571053E
:1025B0008105910529F481E0442361F080E00895CC
:1025C000DC01CB0104C0B695A795979587954A95F0
:1025D000D2F7817008950F931F9341E050E060E0BF
:1025E00070E08A019B0104C0000F111F221F331FDE
:1025F0008A95D2F7C901B8011F910F910C94C512A9
:102600000F931F9341E050E060E070E004C0440F7E
:10261000551F661F771F8A95D2F78091F901909117
:10262000FA01A091FB01B091FC018A019B01082BEA
:10263000192B2A2B3B2BC901B8011F910F910C9428
:10264000C5120F931F9341E050E060E070E004C0BA
:10265000440F551F661F771F8A95D2F7CB01BA0129
:1026600060957095809590950091F9011091FA010F
:102670002091FB013091FC0160237123822393237D
:102680001F910F910C94C5120F931F9341E050E0DE
:1026900060E070E004C0440F551F661F771F8A95E5
:1026A000D2F78091F9019091FA01A091FB01B091CC
:1026B000FC018A019B01082719272A273B27C9010A
:1026C000B8011F910F910C94C5120F931F930091A5
:1026D000F9011091FA012091FB013091FC01602B6E
:1026E000712B822B932B1F910F910C94C5120F937A
:1026F0001F930091F9011091FA012091FB01309193
:10270000FC0160237123822393231F910F910C946A
:10271000C5120F931F930091F9011091FA012091B6
:10272000FB013091FC0160277127822793271F91BD
:102730000F910C94C5120895E92FEE0FEE0F9E0F26
:10274000890F982F977041E001C0440F9A95EAF7DE
:1027500086958695869595E0899FF0011124E05233
:10276000FE4F30E020E070E05191DF011197CB0186
:10277000022E02C0969587950A94E2F781708195A2
:102780008527842385278C932F5F3F4F2530310584
:1027900059F70895E92FEE0FEE0F9E0F890F982F2E
:1027A000977086958695869525E0829FF001112485
:1027B000E052FE4F50E040E080E0219130E0092EF1
:1027C00002C0369527950A94E2F721703327042E2C
:1027D00001C0220F0A94EAF7822B4F5F5F4F45300A
:1027E000510559F70895BF92CF92DF92EF92FF9271
:1027F0000F931F93CF93DF938C01C090F901D0907A
:10280000FA01E090FB01F090FC018091FD019091B4
:10281000FE01A091FF01B0910002C82AD92AEA2A3C
:10282000FB2ACFE1D0E0BC2ED701C6010C2E04C09C
:10283000B695A795979587950A94D2F780FD0EC017
:10284000219788F7B12C8B2DDF91CF911F910F919C
:10285000FF90EF90DF90CF90BF900895B8018C2F3C
:102860000E94D11A019761F3EECFCF93DF93EC0171
:102870000E94F313BE01DF91CF910C94D11A1F93E4
:10288000CF93DF93EB019091DF01992331F0CB01DE
:10289000DF91CF911F910C943514882379F0CB01EF
:1028A0000E94F313182F682FCE010E949C13BE01C3
:1028B000812FDF91CF911F910C94D11ACB010E94EF
:1028C000CA13182FF4CF1F93CF93DF93C091010247
:1028D00016E0809102028C1304C0DF91CF911F910A
:1028E0000895D0E01C9FF0011D9FF00D1124ED5FB5
:1028F000FD4F4081518162817381848195810E9465
:102900006B122196C770E5CF40913302509134028B
:1029100060913502709136028091370290913802B1
:102920000C946B12209101029091020256E029133F
:1029300002C080E0089530E0529FF001539FF00DF7
:102940001124ED5FFD4F7181761306C070817813FD
:1029500003C07281741304C02F5F3F4F2770E7CF0D
:1029600081E008951F93CF93DF9380913802807F99
:10297000A9F480913502882389F080910102C091E9
:1029800002026091330270913402A0913602B0913C
:102990003702D62FD72316E0C81304C0DF91CF919A
:1029A0001F91089590E0109711F0DF3F19F4019600
:1029B0008770F2CF189F9001199F300D1124F901F3
:1029C000ED5FFD4F41814713F2CF40814613EFCFBA
:1029D00042814111ECCF438154814A1B5B0B483C3F
:1029E000510528F7809138028F70806180933802FA
:1029F000F901E85FFD4F80818F708061808383E300
:102A000092E00E94F411DF91CF911F910C94631416
:102A10008F929F92AF92BF92CF92DF92EF92FF92EE
:102A20000F931F93CF93DF93CDB7DEB761970FB6A8
:102A3000F894DEBF0FBECDBF8C0185E0F801DE014A
:102A40001D9601900D928A95E1F7D8011296EC90AF
:102A5000129783E3A82E82E0B82E4091360250915F
:102A600037024115510509F45CC190913302209160
:102A70003402892F82238F3F09F453C1CC901196E1
:102A8000DC90119713968D909C901497F0903502DE
:102A9000F401E41BF50BFF2009F413C18091380207
:102AA000382F307FE83CF10508F0CDC0311189C0E6
:102AB000FE2C2D1126C09C1124C0E11022C08F7065
:102AC0008061809338020E948414C5010E94F41131
:102AD00080913802D80115968C938F2D61960FB690
:102AE000F894DEBF0FBECDBFDF91CF911F910F9144
:102AF000FF90EF90DF90CF90BF90AF909F908F901E
:102B000008958114910429F08D2D8C218F3F09F0B7
:102B100024C180E080FF15C04E2D6D2D8C2D0E94AC
:102B20009214882371F083E392E00E94F41186E00E
:102B3000E3E3F2E0DF011D928A95E9F70E94841435
:102B40003EC0892829F08D2D8C218F3F09F002C1CC
:102B500080E0B82FB170AB2E80FF29C04E2D6D2DB7
:102B60008C2D0E949214B82E811121C0CD86DE8654
:102B70008D859E850E943514292F22952F70223035
:102B800050F0243078F49F7051F0F8019581907FD7
:102B900031F4FB2CA2CF9F7011F08823D1F3805E1B
:102BA0008830B8F3C8010E94F411BA2CF2CFEE209D
:102BB00009F493CF80913802816080933802F12C20
:102BC0008CCF2D1114C09C1112C0E11010C01596AD
:102BD0008C93C8010E94F41186E0F801A3E3B2E0EF
:102BE00001900D928A95E1F70E94841476CFC80176
:102BF0000E945512882319F1EE2009F180913802C4
:102C0000803270F0209133023091340238872F8364
:102C100019869B868A868C87CE0107960E94F411BE
:102C200086E0F801A3E3B2E001900D928A95E1F706
:102C30000E94B2140E948414FF24F3944ECFC80162
:102C40000E94F411F9CF311112C0782D998A888A27
:102C5000A6016E2D89890E945C1283E392E00E9496
:102C6000F41186E0F50111928A95E9F767CF2D11ED
:102C70000FC09C110DC0E1100BC015968C93C801BC
:102C80000E94F41186E0F50111928A95E9F725CFAB
:102C9000C8010E945512882391F2EE2081F28091A2
:102CA0003802803208F4BCCF2091330230913402D4
:102CB0003A8329831B829D828C828E83CE0101966A
:102CC000ADCFE83CF105F8F4FE2CEE2009F4B7CFC7
:102CD0002D110BC09C1109C086E0F801A3E3B2E0FE
:102CE00001900D928A95E1F7F8CEC8010E94551225
:102CF000811196CF80913802816080933802C8019B
:102D00000E94F411EACE782D998A888AA6016E2D48
:102D100089890E945C1286E0D5011D928A95E9F7A7
:102D200063CFEE2009F48BCFC8010E945512F82E14
:102D3000882309F484CF86E0F801A3E3B2E0019090
:102D40000D928A95E1F783E392E00E94F50E0E94CE
:102D5000B2144ACF81E08E25FCCE81E08E25DACEFA
:102D60001F93CF93DF93CDB7DEB72C970FB6F894B0
:102D7000DEBF0FBECDBF4F83588769877A878B87A9
:102D80009C87CE0107960E940815882369F08A85E2
:102D90009B85892B39F04F815885842F85238F3F60
:102DA00009F071C016E05FC086E0FE013796DE01D3
:102DB000119601900D928A95E1F78A859B85892B62
:102DC00089F38F81988589238F3F61F320910202D7
:102DD00030E0C90101968770992740910102481798
:102DE000190671F40E94321210920202109201022E
:102DF00086E0E3E3F2E0DF011D928A95E9F7D2CFA6
:102E000096E0929FD001939FB00D1124AD5FBD4F0E
:102E1000FE01319601900D929A95E1F7809302029E
:102E20000E946314BFCF819FC00111248D5F9D4F0D
:102E30000E9408158823E9F0E09101021E9FF0012D
:102E40001124ED5FFD4F4081518162817381848146
:102E500095810E946B128091010290E0019687702B
:102E600099278093010280910102909102028913B7
:102E7000DACF2C960FB6F894DEBF0FBECDBFDF9130
:102E8000CF911F91089569857A858B859C850E94D5
:102E90006B1288CF682F80912001909121010C94B2
:102EA0001829682F80912001909121010C941A29F2
:102EB00080912001909121010C941C29809139026C
:102EC0008595859585950895809139028770089537
:102ED00090913902977081E009F480E00895909113
:102EE000B20292FB222720F9281751F080FB92F9B9
:102EF0009093B2028091B1029091B2020C94611849
:102F000008958091B20282FB882780F991E0892799
:102F10000C946F1781E00C946F1780E00C946F177E
:102F200080914502089590914502892B8093450236
:102F300008958095909145029823909345020895B5
:102F400010924502089590914402892B8093440287
:102F50000895809590914402982390934402089597
:102F600010924402089510924302089580913A020B
:102F7000089508950C94B9179091B20292FD08C07B
:102F800090913A02981721F080933A020C94BA1764
:102F9000089580913A02882329F010923A0280E045
:102FA0000C94BA170895E0912001F09121018091CD
:102FB00045028083E0912001F09121018081909170
:102FC0004402892B8083E0912001F09121018081CE
:102FD00090914302892B808390913A02992381F04A
:102FE000E0912001F09121018081892B80838091E3
:102FF0002001909121010E94D02881110E94C917BF
:1030000080912001909121010C948E2808950C94B8
:1030100006189091B20292FD10C098E0899F90012D
:103020001124622B609339020E94001380913902AF
:103030008595859585950C9407180C94001310922E
:10304000390280E00C940718909139028095892309
:1030500080933902282F277039F4282F082E000C6E
:10306000330B9217130621F49091B20292FF07C01E
:103070008595859585950E9421130C941F180895B8
:1030800090E080E00E94813121E0893E9E4F09F06E
:1030900020E0822F089582E090E00C94733183E069
:1030A00090E00C947331CF9384E090E00E947331F0
:1030B000C82F82E290E00E947331982F8C2FCF911D
:1030C0000895CF93C92F682F84E090E00E94873144
:1030D0006C2F82E290E0CF910C9487318FE090E0EA
:1030E0000C947B31AB01BC018FE090E00C949931E2
:1030F000AB01BC0183E190E00C94993160E070E099
:10310000CB010C94781869EE7EEF90E080E00E948D
:10311000A53160E082E090E00E94873160E083E0CA
:1031200090E00E9487311092FD011092FE011092F2
:10313000FF011092000260E084E090E00E9487317D
:1031400060E082E290E00E94873160E085E090E0FC
:103150000E94873160E086E090E00E9487316FEF47
:1031600087E090E00E94873140E050E0BA0188E0BB
:1031700090E00E94993160E08DE090E00E948731FC
:1031800040E050E0BA0188E190E00E94993160E0AF
:1031900087E190E00E94873140E050E0BA018CE185
:1031A00090E00E94993170E060E080E290E00E943F
:1031B000A53140E050E0BA0188E190E00E949931E9
:1031C0000C94C50D0C948318682F8EE090E00C943D
:1031D00087310E94F32960935302709354028093C5
:1031E00055029093560260934F0270935002809361
:1031F000510290935202089585B7806885BF85B7C4
:10320000806885BF08950895089508950C94051960
:103210000E94FC188FEA9BE10E94722A0E94041906
:103220000C94350D0C94DB1D089508950E9414191B
:103230000C9415190E94DE290E9423290E94911CDA
:103240000E9457230E943D0D0C940619AF92BF9225
:10325000CF92DF92EF92FF920F931F93CF93DF9362
:10326000CDB7DEB72A970FB6F894DEBF0FBECDBF3D
:103270000E94511D81110E94E91887E4A82E82E066
:10328000B82E10E000E0C02E802F0E94DA1BE82E3E
:10329000F501F1905F01F81609F44FC080915702D3
:1032A00081FD0E94E01B8F2D8E25D12CFF24F394ED
:1032B000982F9F21E9F10E941219882399F0DE824C
:1032C000CF82EF2081E009F480E088870E94E7291F
:1032D0008160782F9A8789874E815F8168858A858A
:1032E0000E94B70EF801E95BFD4F8081F826F0825D
:1032F0000E948D210E944A0D0E947B2890914602D7
:10330000891791F10E947B28809346022A960FB676
:10331000F894DEBF0FBECDBFDF91CF911F910F910B
:10332000FF90EF90DF90CF90BF90AF900C94AF0ED6
:10333000D394FF0CF5E0DF12BBCF0F5F1F4F0830B7
:10334000110509F0A0CF8FEF89838A831B820E9429
:10335000E7298160782F9D838C8349815A816B8115
:103360008D810E94B70EC4CF2A960FB6F894DEBFA7
:103370000FBECDBFDF91CF911F910F91FF90EF90C6
:10338000DF90CF90BF90AF900895CF93DF930E94CE
:10339000D51AEC01811521E5920708F042C081158C
:1033A00030E5930708F09DC0883E910530F5803EDA
:1033B000910508F092C0883A910588F4853A910504
:1033C00008F084C08130910509F487C0009709F4A2
:1033D00084C0049708F081C0D0E0C0E07EC08F3B7D
:1033E0009105D0F7C85AD0E0CC0FDD1FC856DE4F8C
:1033F0000990D881C02DD46470C08115904250F4DA
:10340000C11581E0D80708F068C0CD3ED10520F392
:10341000D06563C0C11590E4D907F0F2DF70D06ABF
:103420005CC0811525E5920700F5811534E5930709
:1034300008F08BC0811543E5940708F073C0C115EF
:1034400082E5D80708F469C0CE018370992721E08E
:1034500030E002C0220F331F8A95E2F7C695C69569
:1034600080E2C89FE001112454C0C11599E5D90735
:10347000A8F4C11528E5D20708F06CC0C11536E5DF
:10348000D30708F0A9CF8C2F0E946C1BC82FD0E067
:10349000DC2FCC27CC27DF71D0621FC0C1154AE5D5
:1034A000D40708F45CC0CE0190568115904208F014
:1034B00093CF8D2F8F710E946C1B90E0982F8827DF
:1034C00088279F719C012C2BE901E6CFC55AD0E0DB
:1034D000CA53DE4FC881D0E0D064CE01DF91CF91D6
:1034E0000895E4E096958795EA95E1F783702C2F8F
:1034F00026952695237040E2249F90011124382BB5
:103500008C2F8370C1E0D0E002C0CC0FDD1F8A9504
:10351000E2F7C22BD32BDC68E0CFDC2FCC27C16FC6
:10352000D06ADBCF8370992721E030E002C0220F00
:10353000331F8A95E2F7C695C69590E2C99FE001D0
:103540001124C22BD32BDA68C8CFD82FCC27C46F55
:10355000D06AC3CFDC2FCC27C06FD06ABECF8C2FF0
:103560008F700E946C1B34E0D695C7953A95E1F7B1
:10357000CF709C2FEC01D069B0CF972F70E025E081
:10358000929F600D711D1124FB0198E2899FE00D4F
:10359000F11D1124EE0FFF1FE655FF4E859194910A
:1035A00008950E94BD1A0C94C51982389105B1F195
:1035B000B0F48133910509F475C048F4893291055E
:1035C00009F469C08A32910509F473C008958533FE
:1035D000910509F459C08933910501F10895833E9D
:1035E0009105A9F138F4803E9105F9F0823E9105EC
:1035F00049F10895863E9105A9F1873E9105C9F1EB
:10360000843E910519F52091B20221FF1FC08091DF
:10361000B10284FD14C087EE90E008952091B102BC
:103620002370A1F080EE90E008952091B10220FD7A
:1036300047C03091B20230FF09C024FF44C090E07F
:1036400080E004C02091B10222FDF7CF08952091BF
:10365000B10222FD3BC03091B20230FDE3CF24FF26
:10366000F5CFEDCF2091B10223FFF0CF24FDE7CFBE
:10367000D2CF2091B10223FD2CC03091B20231FF94
:10368000EECF84EE90E008952091B10225FFDECFC9
:1036900089E290E008952091B10225FFD7CF85E31C
:1036A00090E008952091B10226FFD0CF8AE290E009
:1036B00008952091B10226FFC9CF81E390E00895DB
:1036C00089E390E0089583EE90E0089582EE90E023
:1036D000089586EE90E008959091B10292FF06C0A1
:1036E000282F28712830F9F4877F846093FF06C063
:1036F000282F28712831F1F4877E84612091B2024D
:1037000020FF06C0382F38713830D9F4877F8160A8
:1037100021FF06C0282F28712831D1F4877E8161CE
:1037200094FD877E0895282F24712430F9F68B7F2D
:103730008860DCCF282F2471243101F78B7E8861CB
:10374000DDCF382F3171313019F78E7F8860E0CFAF
:10375000282F2171213121F78E7E8861E1CF80E011
:10376000089508950E944018811102C00E94E21835
:103770000E944B18809357020E9453189093B202F4
:103780008093B1020E94B11B0E944F18682F70E015
:1037900090E080E00E948B126091F9017091FA0133
:1037A0008091FB019091FC010C947A0C089508958E
:1037B0000C94D71BE82FF0E0E554FD4F808108956D
:1037C000089580EA8A95F1F7089500C008950C9451
:1037D000E11BF894E82FE295EF70F0E031A1282F7B
:1037E0002F7081E090E001C0880F2A95EAF7982FAA
:1037F0009095932391A392A1892B82A37894089505
:1038000008950C94001CCF93DF93C2E2D1E089911C
:103810008F3F11F00E94E91B81E0C732D807B9F74A
:10382000C7E2D1E089918F3F11F00E94E91B81E04E
:10383000CB32D807B9F7DF91CF910895DF92EF929D
:10384000FF920F931F93CF93DF93D82EE92EF62E7E
:10385000062F10E00E5D1E4FE80188818F3F09F4AE
:1038600058C0F894E82FE295EF70F0E021A18F7036
:10387000C1E0D0E0AE0102C0440F551F8A95E2F7C7
:10388000CA01922F982B91A392A18095892382A39C
:1038900078940E94E51B0F2C01C0CC0F0A94EAF724
:1038A0006C2F7C2F7095A7E2B1E0ED2DFE2D4BE241
:1038B00051E0E12C9D9180819F3F41F1292F22957C
:1038C0002F7030E0E90128A130E09F7002C03595EB
:1038D00027959A95E2F720FD19C0862B8083EE2468
:1038E000E39431964A175B0729F7F80180818F3FEF
:1038F00011F00E94E91B6E2D8F2DDF91CF911F914A
:103900000F91FF90EF90DF900C94E71B872380834B
:10391000E8CFDF91CF911F910F91FF90EF90DF9053
:103920000895CF93DF93CDB7DEB72D970FB6F894F8
:10393000DEBF0FBECDBF0E94F81D80912F01811107
:103940002FC01D821E821F82188680EF898386E623
:103950008A8384E98B8385E38C83FE013196A7E219
:10396000B1E0CE01099621912D93E817F907D9F717
:1039700085E0E2E6F1E0DE01199601900D928A956C
:10398000E1F78985809322018A85809323018B85C5
:10399000809324018C85809325018D858093260159
:1039A00080912F0194E0811190E09093C40284E013
:1039B000891B8093C3020E94031CE3EBF2E0ABEB94
:1039C000B2E011921D9282E0EB3BF807D1F784E060
:1039D0000E94A41D0E943D0E2D960FB6F894DEBFE6
:1039E0000FBECDBFDF91CF910C94021E1F93CF93DA
:1039F000DF9300D000D0CDB7DEB70E94DB1D182FBB
:103A00006091C402882309F43FC019821A821B8284
:103A10001C82862F90E0BE016F5F7F4F85549D4FC3
:103A20000E94101EE091C3029E012B5F3F4FF0E009
:103A3000882301F1BF0165547D4FDE01119610E02E
:103A4000FB014191BF019D91491731F0AF014150F8
:103A50005109FA019083182FA217B30789F70E9422
:103A6000430E812F0F900F900F900F90DF91CF9109
:103A70001F910895E554FD4FDE01119611921D929C
:103A8000A217B307D9F7EBCF70E065547D4F809153
:103A9000C30290E085549D4F0E949D1E0E94011C10
:103AA000E0CFEF92FF920F931F93CF93DF93CDB7A9
:103AB000DEB728970FB6F894DEBF0FBECDBF8E01DC
:103AC0000F5F1F4F88E0F80111928A95E9F7F12CFA
:103AD0006F2DC8010E941E1CF394F5E0FF12F8CF71
:103AE00048E050E0B80183EB92E00E945D317C0138
:103AF00021E0892B09F420E0E114F10441F088E091
:103B0000F801A3EBB2E001900D928A95E1F7609184
:103B1000C40270E065547D4F44E083EB92E00E9464
:103B2000A51D81E090E0EF2811F40E94F61C289674
:103B30000FB6F894DEBF0FBECDBFDF91CF911F91BE
:103B40000F91FF90EF9008950895FF920F931F93A8
:103B5000CF93DF93F82E092F162FD72FC42F2223B0
:103B600049F081E080935A020E94E729909359021C
:103B70008093580280915A028823A1F080915802C4
:103B8000909159020E94FF29059760F0EF2DF02FC8
:103B9000A12FBD2FCE0FDF2FD11DEC17FD0741F454
:103BA00010925A02DF91CF911F910F91FF900895CB
:103BB00081918D93F2CF80915D02811107C00E94A7
:103BC0002231882351F081E080935D0281E0909161
:103BD0005D02913009F080E0089582E080935D02FB
:103BE0000E941D31F3CF0E94DB1D91E089270895CB
:103BF0000E94F31D80932F010E94DB1D81110C9404
:103C0000461E08950E94DB1D811102C00C94481EBF
:103C1000089581E090915E029A3008F080E0089566
:103C20000F931F93CF93DF93EC018B0180915E0282
:103C30008A30B8F4B801CE010E949B1EC82F8111B2
:103C400022C080915E028F3FB9F40E94E7299093D1
:103C50005C0280935B028C2FDF91CF911F910F91BB
:103C6000089580915B0290915C020E94FF29843F3D
:103C7000914000F7C0E0EFCF8F5F80935E028A3003
:103C800020F7C1E0E8CF10925E02E5CF0C94B52694
:103C90000C94B826EF92FF920F931F93CF93DF936C
:103CA0007901C82F880FDD0B41155105A9F08AE075
:103CB0008C9FF0018D9FF00D1124E05DFE4F8381FC
:103CC0009481815A9D4F228130E04217530708F4B6
:103CD0009A01A9010E946A31CE010E94C227892B54
:103CE00011F501151105E9F08AE08C9FF0018D9F17
:103CF000F00D1124E05DFE4F458150E004171507DB
:103D000008F4A8018AE08C9FF0018D9FF00D11242A
:103D1000E05DFE4F66817781615A7D4FC7010E9449
:103D20006A3181E001C080E0DF91CF911F910F9156
:103D3000FF90EF9008950C94BB1F0C94D71F0F9326
:103D40001F93CF93DF9300D000D0CDB7DEB7609143
:103D500074027091750280917602909177020E94B0
:103D60000E2A11E0643671058105910518F10E9453
:103D700049296E5F7F4F8F4F9F4F69837A838B8373
:103D80009C8310E000E030E020E044E050E0BE0121
:103D90006F5F7F4F82E00E944A1E182F882351F0E8
:103DA0000E94F329609374027093750280937602E7
:103DB00090937702812F0F900F900F900F90DF91CB
:103DC000CF911F910F910895AF92BF92CF92DF9242
:103DD000EF92FF920F931F93CF93DF9300D000D009
:103DE0000F92CDB7DEB75B01E090C901F090CA0138
:103DF00001E010E09E012B5F3F4F50E040E070E09B
:103E000060E080E00E944A1E182F882309F44BC00E
:103E100067018FEFC81AD80A609170027091710221
:103E200080917202909173020E940E2A643671058D
:103E30008105910580F104E010E09E012F5F3F4F66
:103E400050E040E070E060E081E00E944A1EF82E01
:103E500064E070E0C6010E94582311E09D81981330
:103E600010E01F2159F10E94F329609370027093B2
:103E70007102809372029093730289819A81AB815F
:103E8000BC8180936C0290936D02A0936E02B093FC
:103E90006F0211E013C064E070E0C6010E94582375
:103EA0009D818913C8CFF70181819281A381B4815B
:103EB00089839A83AB83BC831111DFCF80916C021D
:103EC00090916D02A0916E02B0916F02F501808316
:103ED0009183A283B383812F0F900F900F900F9047
:103EE0000F90DF91CF911F910F91FF90EF90DF9096
:103EF000CF90BF90AF900895AF92BF92CF92DF92D4
:103F0000EF92FF920F931F93CF93DF937C015B019E
:103F10006A010E94091E01E010E0882311F00AE006
:103F200010E0C1E0D0E0F894B501C701F6010995B1
:103F30007894811104C021960C171D075CF4DF9161
:103F4000CF911F910F91FF90EF90DF90CF90BF9096
:103F5000AF900895CC9F9001CD9F300D300D11246E
:103F600090E080E045E34A95F1F700000196821762
:103F70009307C1F7D8CF0F931F93CF93DF93EC0133
:103F80008B0144EE5EE10E947C1F882351F04FE9D3
:103F90005EE1B801CE01DF91CF911F910F910C949A
:103FA0007C1F80E0DF91CF911F910F9108950F93B7
:103FB0001F93CF93DF93F894C091C901D091CA01A8
:103FC000CE01019624E0FB01DC0101900D922A95BF
:103FD000E1F764E070E00E94582388837894F894B5
:103FE0006D817E818F8198850091680210916902B0
:103FF00020916A0230916B02601771078207930764
:1040000051F0609368027093690280936A02909302
:104010006B020E942C297894DF91CF911F910F9110
:1040200008950E9464290E94D72B0E94F02B0E94C1
:10403000022C0E941619FBCF80917E0280FF12C0D5
:104040006091530185E0689FB001112475956795D3
:104050007595679560387105A8F561157105A1F131
:10406000862F089581FF09C06091530185E0689F04
:10407000B001112475956795EDCF6091530182FDD4
:104080000AC080917D028823D1F090915201609105
:104090005301891728F085E0689FB0011124DACF19
:1040A000869FB001112485E0869F9001879F300D87
:1040B0001124692F70E0C9010E944331CBCF65E024
:1040C00070E0CECF8FE7089581E0089580917E0261
:1040D00080FF0CC060914F0170E0759567957595F4
:1040E00067956115710549F1862F089581FF06C016
:1040F00060914F0170E075956795F3CF60914F0126
:1041000082FD0BC090917C029923A1F060914E0139
:1041100080914F01961738F0682F70E06038710574
:1041200000F38FE70895899FC001112470E00E9479
:104130004331F4CF61E070E0D7CF81E008958D3E48
:1041400031F40E941C2081958093810208958E3E57
:1041500019F40E941C20F8CF8F3E31F40E941C20DD
:104160008195809380020895803F19F40E941C205D
:10417000F8CF893F29F40E94662080938202089537
:104180008A3F21F40E9466208195F7CF8B3F31F45E
:104190000E94662081958093830208958C3F19F4D4
:1041A0000E946620F8CF9FE0980F983070F4815FEE
:1041B000990B21E030E001C0220F8A95EAF7809147
:1041C0007F02822B80937F0208958D3F31F480918E
:1041D0007E02816080937E0208958E3F21F480915B
:1041E0007E028260F7CF8F3FB9F780917E028460B4
:1041F000F1CF409180028D3E59F48091810287FF7A
:104200000DC01092810241110BC010927D0208C0B6
:104210008E3E81F48091810218169CF3442381F034
:104220008091820290918302892B09F05AC01092EA
:104230007C0208958F3E49F447FFF0CF1092800230
:10424000809181028111ECCFE0CF803F19F41416E8
:10425000ACF3E4CF90918202893F29F41916F4F669
:1042600010928202DBCF8A3F19F497FFD7CFF8CFA5
:10427000909183028B3F29F497FFD0CF1092830255
:10428000CDCF8C3F19F41916CCF3C8CF9FE0980F0F
:10429000983090F4815F990B21E030E0B90102C0C1
:1042A000660F771F8A95E2F7CB01809590917F0288
:1042B000892380937F02B2CF8D3F31F480917E02BB
:1042C0008E7F80937E02AACF8E3F21F480917E0262
:1042D0008D7FF7CF8F3F09F0A1CF80917E028B7F3A
:1042E000F0CF08950E94E7299C019091800280916F
:1042F0008102982B21F030937B0220937A029091D7
:10430000820280918302982B21F0309379022093CE
:1043100078028FE792E00C949928EF92FF920F9326
:104320001F93CF93DF9300D000D00F92CDB7DEB7AD
:1043300085E0EFE7F2E0DE01119601900D928A959B
:10434000E1F7E0908002F0908102009182021091EA
:1043500083021092800210928102109282021092C7
:1043600083028E2D8F2991F080917A0290917B02A9
:104370000E94FF29AC0190917D02992309F43EC06F
:10438000809154018417150608F446C0802F812BB4
:1043900091F080917802909179020E94FF29AC01FE
:1043A00090917C02992309F476C080915001841782
:1043B000150608F47EC08091800290918102892BBD
:1043C00090918202892B90918302892B11F00E9497
:1043D000722185E0FE013196AFE7B2E001900D92C7
:1043E0008A95E1F70F900F900F900F900F90DF914B
:1043F000CF911F910F91FF90EF900895209155015B
:104400008AE0289F900111242417350708F0BECFB9
:104410009F5F90937D0202C09F3FD1F7EE2059F03D
:104420000E941C209FEF1E140CF491E0899F802DA8
:10443000112480938002FF2059F00E941C209FEFDE
:104440001F140CF491E0899F802D11248093810228
:1044500030918002332309F499CF209181022223E5
:1044600009F494CF45EB3403C0011124992359F08A
:104470009093800245EB240390011124332339F0FB
:104480003093810283CF81E080938002F3CF81E07B
:10449000809381027BCF209151018AE0289F900177
:1044A00011242417350708F086CF9F5F90937C0274
:1044B00002C09F3FD1F7002359F00E9466209FEF72
:1044C00010160CF491E0899F802D112480938202B4
:1044D000112359F00E9466209FEF11160CF491E011
:1044E000899F802D1124809383023091820233238F
:1044F00009F461CF20918302222309F45CCF45EBBC
:104500003403C0011124992359F09093820245EBA2
:10451000240390011124332339F0309383024BCFCD
:1045200081E080938202F3CF81E08093830243CFC6
:1045300085E0EFE7F2E0DF011D928A95E9F710923E
:104540007D0210927C0210927E020895EF92FF92FB
:104550000F931F93CF93DF93CDB7DEB72A970FB694
:10456000F894DEBF0FBECDBF6B837C838D8308873D
:1045700019872A874E1119C0552311F0F51215C05D
:104580008B81882319F0988598130FC08D8188231B
:1045900019F09A85981309C09C81992321F081E034
:1045A0002985291303C080E001C081E081702A962B
:1045B0000FB6F894DEBF0FBECDBFDF91CF911F9134
:1045C0000F91FF90EF900895EF92FF920F931F933A
:1045D000E0908402F090850200918602109187029B
:1045E000209188024091890250918A0260918B0249
:1045F00070918C0280918D020E94A622882321F066
:1046000089E892E00E94992810928A0210928B0207
:1046100010928C0210928D0285E0E9E8F2E0A4E8A5
:10462000B2E001900D928A95E1F71F910F91FF90F2
:10463000EF900895CF93DF9300D000D00F92CDB7C5
:10464000DEB785E0E9E8F2E0DE01119601900D9217
:104650008A95E1F729813A814B815C816D8170E017
:1046600080E090E00F900F900F900F900F90DF91EF
:10467000CF910895CF93DF9300D000D00F92CDB7A4
:10468000DEB749835A836B837C838D8385E0FE018B
:104690003196A9E8B2E001900D928A95E1F70F906A
:1046A0000F900F900F900F90DF91CF910895089584
:1046B000FC01680F791F8FEF91E36E177F0709F4F4
:1046C00008952191822728E030E087FF06C0880FF7
:1046D000892721503109C9F7F0CF880FFACF0F93FE
:1046E0001F93CF93DF93C42FD22FFC0182818823A5
:1046F000C9F0409390020E94E72990938F02809323
:104700008E0280E28C0F883008F050C0C77081E0C4
:1047100001C0880FCA95EAF7DF91CF911F910F91E1
:104720000C94BD0F10919002141335C080918E022D
:1047300090918F020E94FF29883C910560F5C0E2AC
:10474000CD0F1D17B9F080E2810F883040F417704B
:1047500081E001C0880F1A95EAF70E94C40FC830A3
:1047600048F481E09D2F977001C0880F9A95EAF771
:104770000E94BD0F802F0E94B50FC830B8F4D770CB
:1047800081E001C0880FDA95EAF7DF91CF911F91A0
:104790000F910C94C40F80E28C0F883038F4C770EE
:1047A00081E001C0880FCA95EAF7EFCFDF91CF9182
:1047B0001F910F9108950F939C01CB01243F4CE56D
:1047C000340759F1A8F4293DFCE53F0701F12A3DE2
:1047D0004CE53407D1F1283D3C4591F406E221EE49
:1047E00041EE68ED7CE50E946F2380E00F91089513
:1047F000263FFCE53F07E9F0B0F0273F3C45F9F0E4
:10480000FC018281882339F110929002EFCF07E2F8
:1048100025EE45EE69ED7CE5E6CF06E221EE40EEC1
:1048200064EF7CE5E0CF07E225EE44EE65EF7CE542
:10483000DACF06E221EE42EE66EF7CE5D4CF07E266
:1048400025EE46EE67EF7CE5CECF08E221E045EEAF
:104850006AED7CE5C8CF81E0C9CFCF93DF93EC014F
:10486000FB018281882309F419C1C230FCE5DF070E
:10487000C0F1C6319CE5D90730F09E012B5F3C4565
:104880002930310570F50E9453189093B20280933D
:10489000B102C031ECE5DE0709F4CFC008F05BC01F
:1048A000C8308CE5D80709F4B6C088F5C430ECE50B
:1048B000DE0709F4A8C0C0F4C2308CE5D80709F4BB
:1048C0009CC08091B1028260C330DC4509F498C07D
:1048D0008091B1029091B2020E9461180E9432123E
:1048E00080E0DF91CF9108958091B1028061C63060
:1048F000ECE5DE0709F484C08091B1028860C7301E
:10490000DC4508F47DC08091B102806279C0CC3072
:104910008CE5D80709F489C070F48091B1028C60ED
:10492000CA30ECE5DE0709F46BC008F478C080916A
:10493000B1028E7F65C0CE308CE5D80709F479C00E
:104940008091B1028B7FCF30DC4508F459C0809153
:10495000B1028F7E55C0CC3FECE5DE0709F457C0AD
:1049600030F5C3318CE5D80709F46FC078F4C13154
:10497000ECE5DE0709F465C0C231DC4509F0A8CFDB
:104980000E9432128091B1028F773AC0C5318CE516
:10499000D80709F462C008F476C08091B202816041
:1049A000CB3FDC4509F094CF8093B20291CFC11583
:1049B000FDE5DF0709F44DC088F48091B2028D7FD8
:1049C000CE3F9CE5D90781F38091B2028E7FCF3F25
:1049D000DC4550F38091B2028360E6CFC230FDE542
:1049E000DF0709F459C008F444C080E0C330DD4556
:1049F00009F06ECF0E94E4186BCF8091B102816004
:104A00008093B10265CF8091B1028460F9CF80912B
:104A1000B2028260C9CF8091B1028064F1CF0E945E
:104A200032128091B1028068EBCF8091B1028D7F0C
:104A3000E7CF8091B102877FE3CF8091B1028F7D74
:104A4000DFCF8091B1028F7BDBCF8091B102837F7A
:104A5000D7CF8091B2028C7FA7CF8091B10282FB29
:104A6000992790F921E0922790FB82F990FB83F936
:104A7000C7CF8091B202982F909591708E7F892B2D
:104A800090FB81F991CF0E9432129091B102892F4F
:104A900097FB87F98058B4CF81E0ACCF81E021CF7C
:104AA000CF93DF93EB0186319C4511F50E9490175F
:104AB0009A81992399F08A7A91E009F490E0909391
:104AC0009102811109C089E20E944A170E94D317FE
:104AD00080E0DF91CF91089585E3F6CF8091910238
:104AE000811104C089E20E945117F0CF85E3FBCF0A
:104AF00081E0EFCF289A219A229A23982B9880E57B
:104B00008CBD0895909156019F3F09F071C08F3F71
:104B100009F46EC0611144C0109293029091930207
:104B2000423009F441C0433009F442C0946041303E
:104B3000E1F141E050E042175307E0F19091930218
:104B40004031510509F452C0C0F54230510509F415
:104B500046C04830510509F446C09CB520919302E7
:104B6000922B9CBD90919202992319F09DB5916072
:104B70009DBD80935601E82FE295EF70F0E031A1E2
:104B8000282F2F7081E090E001C0880F2A95EAF766
:104B9000382B31A392A18095892382A381E00895C7
:104BA00090E290939302BACF986090939302C1CF12
:104BB0009C60FBCF440F551FBECF4034510549F0D8
:104BC0004038510541F04032510539F621E020933B
:104BD0009202926001C0936090939302BECF91E0E5
:104BE00090939202BACF21E0209392029160F4CF89
:104BF00080E00895CF93DF938EBD0E94E729EC01FA
:104C00000DB407FE05C08EB590E0DF91CF910895F9
:104C10000E94E7298C1B9D0B8436910588F38EEF4B
:104C20009FEFF3CFCF93DF931EBC0E94E729EC01E7
:104C30000DB407FE05C08EB590E0DF91CF910895C9
:104C40000E94E7298C1B9D0B8436910588F38EEF1B
:104C50009FEFF3CF809156018F3F29F1E82FE29526
:104C6000EF70F0E041A18F7021E030E0B90102C0A7
:104C7000660F771F8A95E2F7CB01942F982B91A3AB
:104C800092A1892B82A38FEF809356018DB58E7FE1
:104C90008DBD9CB580919302809589238CBD109227
:104CA00093021092920208958EE14A9B02C08150B5
:104CB000E1F74A9BFECF08955A9880E28A95F1F772
:104CC0005A9A0895FC013BE03A95F1F798E020E00C
:104CD00080E031E040E14A95F1F7880F4A9B02C03D
:104CE0008160232742E04A95F1F7000040E14A95B0
:104CF000F1F7915079F790E19A95F1F799B132E097
:104D00003A95F1F7000040E14A95F1F792FB9927B7
:104D100090F992272081920F90830895EF92FF924D
:104D20000F931F93CF93DF930F92CDB7DEB7198206
:104D30008C017C01E60EF11C0E151F0561F481E06B
:104D40009981911180E00F90DF91CF911F910F9188
:104D5000FF90EF9008950E945426CE0101960E9484
:104D60006226F80181938F01E7CF529A5A9A0895EB
:104D700052985A9AEA9AE9E6F0E080818F7C808323
:104D800008956150770B91E001C0990F6A95EAF799
:104D900020E031E0911108C0222391F05A9A80E27C
:104DA0008A95F1F75A980895492F482339F05A9A6D
:104DB000232740E24A95F1F79695ECCF5A98F9CF20
:104DC0005A98EDCFFF920F931F93CF93DF93EC018F
:104DD0008C01060F111DC017D10731F4DF91CF915F
:104DE0001F910F91FF900895F9900E945C2668E052
:104DF0008F2D0E94C126EFCF1F920F920FB60F92F8
:104E00001124EF92FF920F931F932F933F934F9391
:104E10005F936F937F938F939F93AF93BF93EF9322
:104E2000FF93CF93DF930F92CDB7DEB719820E9425
:104E30005426CE0101960E946226A82FA695A6951B
:104E4000A695282F229525709A2F9570290F922FBD
:104E5000937026952695920F982797708981982BA5
:104E600009F075C0A43008F072C080E18A95F1F7AE
:104E70005A9A529AB2E0BA95F1F700C05A98EA2EBF
:104E8000F12CEAE0AE9FD0011124A05DBE4F189630
:104E9000ED91FC9119973097B1F06091C901709133
:104EA000CA0116962D913C911797260F371F13961E
:104EB0008D919C911497680F791F15964C911597B9
:104EC00012968C9109958AE08E9DF0018F9DF00DD0
:104ED0001124E05DFE4F6581662351F02091C901E8
:104EE0003091CA0186819781820F931F0E94E2262A
:104EF0000E945C26F0E1FA95F1F75A9852985A9A76
:104F000080E18A95F1F78AE08E9D80018F9D100DDA
:104F10001124005D1E4FD80112966C9112976623E2
:104F200071F12091C9013091CA0113968D919C9124
:104F3000820F931F0E948E26D801ED91FC91882349
:104F400011F088E001C082E080830E9454260F9017
:104F5000DF91CF91FF91EF91BF91AF919F918F9191
:104F60007F916F915F914F913F912F911F910F9181
:104F7000FF90EF900F900FBE0F901F901895ED913E
:104F8000FC91DFCF0F931F93CF93DF93EC01049736
:104F90000CF0A9C08AE08C9FF0018D9FF00D1124C8
:104FA000E05DFE4F80819181892B09F49CC0F894CB
:104FB000529A5A9885E08A95F1F700008C2F8695D1
:104FC00085709C2F9570890F982F93708695869584
:104FD000890F8E0193E0000F111F9A95E1F7082BBE
:104FE0000E945C2600C068E0802F0E94C126A0E1DC
:104FF000AA95F1F752985A9A4A9B27C087E090E009
:105000004A9925C08AE08C9F80018D9F100D112444
:10501000005D1E4FF80165816623A1F12091C90151
:105020003091CA0186819781820F931F0E948E263C
:10503000811128C0529A5A9AD801ED91FC9182E0D0
:105040008083789482E090E016C000C0D5CF0197AD
:10505000B9F4529A5A9A8AE08C9FF0018D9FF00D14
:105060001124E05DFE4F0190F081E02D81E080830E
:10507000789481E090E0DF91CF911F910F91089596
:1050800000C0BECF0E945426B0E2BA95F1F75A98FC
:10509000529AE0E1EA95F1F78AE08C9FF0018D9F4A
:1050A000F00D1124E05DFE4F6281662351F02091E6
:1050B000C9013091CA0183819481820F931F0E949C
:1050C000E2260E945C268AE08C9FF0018D9FF00D05
:1050D0001124E05DFE4F0190F081E02D1082789464
:1050E00090E080E0C8CF84E090E0C5CF90939A0232
:1050F0008093990208950E94DB1D811103C0809165
:1051000094020895E0919902F0919A02309721F06B
:105110000190F081E02D099480E00895E0919902DA
:10512000F0919A02309721F00280F381E02D0994EA
:105130000895E0919902F0919A02309721F004804D
:10514000F581E02D099408952091970230919802FD
:105150002817390771F09093980280939702E09195
:105160009902F0919A02309721F00680F781E02DA4
:1051700009940895209195023091960228173907D5
:1051800071F09093960280939502E0919902F091CC
:105190009A02309721F00084F185E02D099408955A
:1051A0009C012E5F3F4FAC01485F5F4F80E02417AA
:1051B000350709F40895F90191919F019923B9F3F5
:1051C0008F5FF5CF662349F0FC0132960896219156
:1051D000261729F0E817F907D1F780E0089581E054
:1051E00008959C01FC0132969FEF80E041914617A3
:1051F00051F09F3F19F4411101C0982F8F5F863005
:10520000A9F79F3F09F40895290F311D97FD3A959D
:10521000F90162830895FC013296089621912613C4
:1052200003C0DF0111971C92E817F907B9F7089539
:105230000C94F1280C940B29029626E0FC011192A3
:105240002A95E9F708951092C6021092C7021092AB
:10525000C8021092C9020895CF92DF92EF92FF9296
:105260006B017C010E94DB1D81110EC00E94F3299D
:10527000C61AD70AE80AF90AC092C602D092C70233
:10528000E092C802F092C902FF90EF90DF90CF90B9
:1052900008950F931F930E94DB1D882321F01F9117
:1052A0000F910C94F3290E94F3290091C6021091EA
:1052B000C7022091C8023091C902600F711F821F7E
:1052C000931F1F910F9108950895089508950C94C8
:1052D00066298091D202843049F10E94672980E0DA
:1052E0000E94AF0E10929B0288E190E020E40FB67E
:1052F000F894A895809360000FBE2093600083B758
:10530000817F846083BF83B7816083BF78948895F1
:1053100083B78E7F83BF0FB6F894A8958091600005
:10532000886180936000109260000FBE0895089518
:10533000CF930E9465290E94511D0E949729C0E0C9
:105340008C2F0E94DA1B811105C0CF5FC830C1F7D6
:10535000CF91089581E0FCCF08950C94AC290E9470
:1053600032120E947B280E94AF0E0C94AD291F922E
:105370001FB61F9211248F939F93AF93BF93809179
:105380009B02811113C08091CA029091CB02A0911F
:10539000CC02B091CD024196A11DB11D8093CA02ED
:1053A0009093CB02A093CC02B093CD02BF91AF916A
:1053B0009F918F911F901FBE1F90189582E084BD12
:1053C00093E095BD9AEF97BD80936E0008952FB737
:1053D000F8948091CA029091CB02A091CC02B09136
:1053E000CD022FBF08952FB7F8946091CA02709133
:1053F000CB028091CC029091CD022FBF08959C01E9
:105400004FB7F8948091CA029091CB02A091CC0240
:10541000B091CD024FBF821B930B0895CF92DF92C4
:10542000EF92FF922FB7F894C090CA02D090CB02AF
:10543000E090CC02F090CD022FBFA7019601261B71
:10544000370B480B590BCA01B901FF90EF90DF9061
:10545000CF90089578941F921FB61F9211248F93B6
:105460009F93AF93BF938091CA029091CB02A0917A
:10547000CC02B091CD020196A11DB11D8093CA024C
:105480009093CB02A093CC02B093CD02BF91AF9189
:105490009F918F911F901FBE1F90189581E0809360
:1054A000E00080E28093D8001092C9008FE19EE472
:1054B0000197F1F700C0000087E090EBDC018093DA
:1054C000DB029093DC02A093DD02B093DE0288E160
:1054D0009CE00FB6F894A895809360000FBE90935F
:1054E0006000FFCF9093DB018093DA0108958091F3
:1054F000A70208959091D202943031F580939C02D6
:1055000070939E0260939D0283E08093E9008FEF89
:105510009091E800815095FD06C095ED9A95F1F7C0
:1055200000008111F5CF8091E80085FF0DC050E0AB
:1055300040E063E070E08CE992E00E948C2C809166
:10554000E8008E778093E8000895BC0184E00C9415
:105550007A2ABC0183E00C947A2A9C0182E0809331
:10556000E9009FEF8091E800915085FD06C085ED30
:105570008A95F1F700009111F5CF8091E80085FF41
:105580000CC050E040E065E070E0C9010E948C2C46
:105590008091E8008E778093E8000895CF93DF93A1
:1055A000EC0181E08093E9008FEF9091E800815059
:1055B00095FD06C095ED9A95F1F700008111F5CFA4
:1055C0008091E80085FF14C050E040E068E070E0A2
:1055D000CE010E948C2C8091E8008E778093E800A9
:1055E00088E0FE01AFE9B2E001900D928A95E1F703
:1055F000DF91CF9108958091D102811109C00E945D
:105600001C2E0E94792E8091E20084608093E2003B
:1056100008951092D102089508950895089542E0E2
:1056200061EC81E00E94982D42E061EC82E00E94F2
:10563000982D42E261EC83E00C94982D8091D40285
:10564000833009F461C030F48130D1F1823009F443
:105650009DC008958A3009F489C08B3009F46FC069
:10566000893009F050C08091D302813209F04BC0DB
:105670008091D7029091D802009719F0029709F013
:1056800042C08091E800877F8093E8008091E80025
:1056900082FF35C09091F3008091F200029729F4C7
:1056A0008091F1008B7F813021F48091F100809313
:1056B000A7028091E8008B778093E8000C94CC2DB2
:1056C0008091D302813AF9F48091E800877F80933A
:1056D000E8008091D7029091D802892B61F468E0AC
:1056E0008FE992E070E00E94DB2C8091E8008B77DC
:1056F0008093E800089560E090E080E0F3CF80912F
:10570000D2028111C3CF08958091D302813AD9F793
:105710008091D7029091D802892BA9F78091E80057
:10572000877F8093E8008091E80080FFFCCF809124
:1057300061018093F1008091E8008E77BDCF809168
:10574000D302813201F78091D7029091D802892B40
:10575000D1F68091E800877F8093E8000E94CC2DED
:105760008091D502809361010C9432128091D30212
:10577000813249F68091E800877F8093E8000E949B
:10578000CC2D8091D6028093A80208958091D302F7
:10579000813A09F0B8CF8091E800877F8093E800D4
:1057A0008091E80080FFFCCF8091A802C2CF84B72F
:1057B000877F84BF0FB6F894A895809160008861B8
:1057C00080936000109260000FBE80E890E00FB6FA
:1057D000F89480936100909361000FBE0C940819B7
:1057E0000E941C2E0E94792EE2EEF0E080818460FF
:1057F000808378940E9402310E941A1987E591E013
:105800000C9476288091D202853031F48091D202B6
:10581000853021F00E94AF290C9426190E94692935
:105820008091D002882391F30E949829882371F3F4
:105830000E94762C0E943212E9CF0C941F2C292F43
:1058400033272330310521F168F42130310509F483
:1058500043C02230310509F444C090E080E030E0DC
:1058600020E026C02132310551F122323105A9F75D
:105870006330710590F7FB01EE0FFF1FE253FE4FFF
:105880002081318165537E4FFB01808190E010C003
:1058900099278130910581F0009729F00297E9F668
:1058A000EAE2F3E102C0E0E7F3E1849190E09F01D6
:1058B000FA01318320830895EAE4F3E1F6CF6330FF
:1058C000710558F6660F771FFB01EC52FE4F2081E1
:1058D000318189E090E0ECCF82E190E028EC33E187
:1058E000E7CF84E590E024E733E1E2CF80E189BDB2
:1058F00082E189BD09B400FEFDCF8091D8008F7D83
:105900008093D8008091E00082608093E0008091D5
:10591000E00081FDFCCF0895AF92BF92CF92DF925D
:10592000FF920F931F93CF93DF936C01EB018A01DA
:105930000E94EB2DF82E811123C00115110539F0BD
:10594000F80180819181C81BD90BC80ED91EB12CDA
:10595000A12C2097A9F08091E80085FD22C08091BC
:10596000E8008E778093E80001151105A1F0F80199
:1059700080819181A80EB91EB182A08285E0F82EA7
:105980008F2DDF91CF911F910F91FF90DF90CF90DE
:10599000BF90AF9008950E94EB2D8823D1F2F82E8E
:1059A000EFCFF60181916F018093F1002197FFEF16
:1059B000AF1ABF0ACECFFC018091D9029091DA02D2
:1059C00086179707A0F06115710529F49091E800FA
:1059D0009E779093E80090E06115710551F4911164
:1059E00008C08091E80082FF34C080E00895BC01C7
:1059F000F2CF8091D2028823C1F18530C1F180912C
:105A0000E80083FD30C08091E80082FDEACF8091FC
:105A1000E80080FFE1CF8091F3002091F200382F61
:105A20006115710519F02830310558F091E02830E2
:105A3000310509F090E02091E8002E772093E800EE
:105A4000CBCF81918093F100615071092F5F3F4F5F
:105A5000E7CF8091D202882341F0853041F08091D8
:105A6000E80083FFBECF81E0089582E0089583E0DF
:105A70000895FC018091D9029091DA028617970768
:105A8000A0F06115710529F48091E8008E7780936C
:105A9000E80090E06115710551F4911108C0809102
:105AA000E80082FF35C080E00895BC01F2CF80910C
:105AB000D2028823C9F18530C9F18091E80083FDC5
:105AC00031C08091E80082FDEACF8091E80080FF3C
:105AD000E1CF8091F3002091F200382F611571051C
